:060000000A128A11FC2F18
:100EEA008316031789018316031301087F398100CA
:100EFA00FF3086008801831203138801F801F90183
:100F0A00FA01FB01FC01FD010310061C0314003069
:100F1A0003180130F000F1017008F2007108F300C3
:100F2A000310861C0314003003180130F000F1018D
:100F3A007008F4007108F5000310061D0314003050
:100F4A0003180130F000F1017008F6007108F7008B
:100F5A0072037304031DB22FB32FC12F78087904CB
:100F6A000319B82FBA2F0130BB2F0030F000F1015E
:100F7A007008F8007108F90074037504031DC62F80
:100F8A00C72FD52F7A087B040319CC2FCE2F013017
:100F9A00CF2F0030F000F1017008FA007108FB0051
:100FAA0076037704031DDA2FDB2FE92F7C087D04F3
:100FBA000319E02FE22F0130E32F0030F000F10196
:100FCA007008FC007108FD00780C031C0810031857
:100FDA0008147A0C031C8810031888147C0C031C50
:100FEA00081103180815892F0A128A11002883018B
:060FFA000A128A11752F96
:04400E00F12FFF3F50
:00000001FF
