:060000000A128A11FC2F18
:100ED4008316031789018316031301087F398100E0
:100EE400FF3086008801831203138801F801F90199
:100EF400FA01FB01FC01FD010310061C0314003080
:100F040003180130F000F1017008F2007108F300D9
:100F14000310861C0314003003180130F000F101A3
:100F24007008F4007108F5000310061D0314003066
:100F340003180130F000F1017008F6007108F700A1
:100F440072037304031DA72FA82FB62F7808790402
:100F54000319AD2FAF2F0130B02F0030F000F10195
:100F64007008F8007108F90074037504031DBB2FA1
:100F7400BC2FCA2F7A087B040319C12FC32F013059
:100F8400C42F0030F000F1017008FA007108FB0072
:100F940076037704031DCF2FD02FDE2F7C087D042A
:100FA4000319D52FD72F0130D82F0030F000F101CD
:100FB4007008FC007108FD004130F100EE30F000D3
:100FC400F00BE22FF10BE22F0000780C83120313D5
:100FD400031C0810031808147A0C031C8810031847
:100FE40088147C0C031C0811031808157E2F0A12A0
:0C0FF4008A11002883010A128A116A2F5A
:04400E00F12FFF3F50
:00000001FF
