:100000000A128A110C280800FE00030EF0000A08EC
:10001000F1000A128A11D32F0A128A110F288316AF
:1000200003130A128A15BB260A128A11DE000A126D
:100030008A15BC260A128A11DF000A128A15BD260B
:100040000A128A11E0000A128A15BE260A128A11C3
:10005000E1000A128A15BF260A128A11E2008313F0
:10006000A0308400C8300A128A15C0260A128A11EC
:1000700083120313E201E301E401E501E601FA0161
:10008000FB0183010A128A1145280A128A15D62615
:100090000A128A1120308400831603135E0883132A
:1000A0008000840A5F088000840A60088000840A57
:1000B00061088000840A620880000A128A110F23F6
:1000C0000A128A110A128A15C8260A128A110030E9
:1000D0000A128A115B260A128A1101300A128A1149
:1000E0005B260A128A110C300A128A115B260A1248
:1000F0008A1100300A128A115B260A128A111730FF
:10010000F8008030F9000A128A114B270A128A116E
:1001100008300A128A115B260A128A1100300A126C
:100120008A115B260A128A110130F8008030F9002A
:100130000A128A114B270A128A1108300A128A11F0
:100140005B260A128A110B300A128A115B260A12E8
:100150008A1100300A128A1573270A128A1173084D
:1001600083160313D3007208D200003083120313E6
:10017000A8000030A7000330A600FF30A5008316BA
:1001800003135208F2005308F300F401F5010030A4
:10019000F9000030F800C330F7005030F6000A12C2
:1001A0008A1103270A128A11750883120313AC00FF
:1001B0007408AB007308AA007208A9000A128A1119
:1001C0005B240A128A118312031326088316031371
:1001D000DD0083120313250883160313DC0010309F
:1001E000F2002730F3005D08F5005C08F4000A1205
:1001F0008A1191270A128A11730883160313D500F6
:100200007208D4001030F2002730F3005D08F500CA
:100210005C08F4000A128A15C8270A128A117308AA
:1002200083160313D7007208D600C8308312031355
:10023000CF001D30D000831603135508831203131B
:10024000D20083160313540883120313D1008316BC
:100250000313570883120313D4008316031356089D
:1002600083120313D3000A128A1507270A128A1170
:10027000C830F8000030F9000A128A114B270A1220
:100280008A110C300A128A115B260A128A11003078
:100290000A128A115B260A128A113C30F2000030E1
:1002A000F300831603132108F5002008F4000A1256
:1002B0008A1191270A128A11730883160313D90031
:1002C0007208D8003C30F2000030F3002108F5003D
:1002D0002008F4000A128A15C8270A128A11730826
:1002E00083160313DB007208DA00C2308312031393
:1002F000CF000D30D0008316031359088312031367
:10030000D20083160313580883120313D1008316F7
:1003100003135B0883120313D400831603135A08D4
:1003200083120313D3000A128A1507270A128A11AF
:10033000C230F8000A128A152A270A128A11882860
:100340000A128A110C28F400741CA729A829BD29B7
:10035000831603135E08840083175F1C8313013028
:10036000F20061080739013EB7290310F20DFF3E84
:10037000031DB52972088004D229831603135E0871
:10038000840083175F1C83130130F2006108073972
:10039000013ECC290310F20DFF3E031DCA2972084D
:1003A000FF3A8005F41CD529D629EC295E08840083
:1003B00083175F1C83130130F200610CF300F30C10
:1003C000730C0739013EE6290310F20DFF3E031DB1
:1003D000E42972088004022A5E08840083175F1CE7
:1003E00083130130F200610CF300F30C730C073936
:1003F000013EFC290310F20DFF3E031DFA2972088D
:10040000FF3A8005741D052A062A192A5E08840011
:1004100083175F1C83130130F20062080739013E25
:10042000132A0310F20DFF3E031D112A72088004E7
:100430002C2A5E08840083175F1C83130130F200AE
:1004400062080739013E262A0310F20DFF3E031D04
:10045000242A7208FF3A8005F41D2F2A302A462AE2
:100460005E08840083175F1C83130130F200620C66
:10047000F300F30C730C0739013E402A0310F20D10
:10048000FF3E031D3E2A720880045C2A5E08840039
:1004900083175F1C83130130F200620CF300F30C2E
:1004A000730C0739013E562A0310F20DFF3E031D5F
:1004B000542A7208FF3A800508008312031340088B
:1004C00084008313000884000A128A150A200A1285
:1004D0008A11253A031D6D2A6E2AF52A40088400E8
:1004E00001308007E201E3010030E600FF30E40064
:1004F000FF30E500C801922AE6144008840001306C
:100500008007922A0130C800922A4008840000081F
:1005100084000A128A150A200A128A11303A031935
:100520007C2A822A48080319962A972A852A400895
:10053000F8004108F9000A128A1104260A128A11E9
:10054000790883120313E3007808E200E31FA92A65
:10055000AA2AB02A6614E209E309E20A0319E30AA7
:100560004008840083130008C900490884000A1267
:100570008A150A200A128A11753A031DC02AC12A57
:10058000ED2A410884000008FF00023080077F0840
:1005900084000008C400840A0008C50040088400E4
:1005A0004908013E8000E22A3E08B5003F08B60037
:1005B0004508B8004408B7000A128A1186250A12B5
:1005C0008A110E2B490884000A128A150A200A1281
:1005D0008A11753A0319D42AED2A831203134008AD
:1005E00084000130831380070E2B4008840000082C
:1005F00084000A128A150A200A128A11C200C30155
:100600004208F2004308F3003E08F4003F08F500FA
:100610000A128A11BB230A128A11ED2A0800DE3061
:10062000840083120313200883138000840A2108A6
:100630008000840A22088000840A23088000840A3B
:10064000240880000030831603135F06031D2A2B45
:1006500005305E06031D2D2B2E2B302B8501472BDD
:1006600000305F06031D362B06305E06031D392B56
:100670003A2B3C2B8601472B00305F06031D422B93
:1006800007305E06031D452B462BBA2B87011A3017
:10069000F900F830F800F80B4B2BF90B4B2B00004E
:1006A00003300A128A115B260A128A110730F900F8
:1006B0007D30F800F80B5A2BF90B5A2B03300A1235
:1006C0008A115B260A128A111530F900C630F8002B
:1006D000F80B682BF90B682B000003300A128A1103
:1006E0005B260A128A1102300A128A115B260A124C
:1006F0008A1102300A128A115B260A128A11083006
:100700000A128A115B260A128A1100300A128A1113
:100710005B260A128A1106300A128A115B260A1217
:100720008A11083083120313A50025152508F80047
:1007300004300310F80CFF3E031D992B78080F3985
:100740000A128A115B260A128A11831203132508E2
:100750000F390A128A115B260A128A1100300A1216
:100760008A115B260A128A1101300A128A115B264D
:100770000A128A110800740875040319C02BC12BD2
:10078000C72B74087504031DC62BC72BCE2B72080C
:100790000A128A1103200A128A115A2C7408093E7F
:1007A00083120313A00075080318013E003EA10048
:1007B000200884008317211C83130008A200840AE8
:1007C0000008A300220823040319E72BE82B1A2CA6
:1007D0007408093EA00075080318013E003EA10000
:1007E000200884008317211C83130008A200840AB8
:1007F0000008A3007408023EA40075080318013E17
:10080000003EA500240884008317251C83130008DC
:10081000A600840A0008A7002708803AA800230839
:10082000803A2802031D162C220826020318192CD0
:100830001A2C5A2C740884008317751C8313000823
:1008400083120313A000840A0008A1007408023E6A
:10085000A20075080318013E003EA3002208840090
:100860008317231C831300082007A5002108A40078
:100870000318A40A801F3D2CA40383120313240829
:10088000A600250884008317261C831372088000A5
:100890007408023EA00075080318013E003EA10046
:1008A000200884008317211C831301308007840AE9
:1008B0000318800A080083120313AF01A81F612CDC
:1008C000622C6F2CA509A609A709A809A50A031976
:1008D000A60A0319A70A0319A80A0130AF00AC1F22
:1008E000722C732C802CA909AA09AB09AC09A90A9E
:1008F0000319AA0A0319AB0A0319AC0A0130AF069F
:100900000030B3000030B2000030B1000030B00061
:10091000280827042604250403198F2C902CDB2C8F
:100920000130AE009E2C0130AD000310A50DA60DC8
:10093000A70DA80DAD0B952C0130AE07A81FA12C5B
:10094000A22C932C0130AD000310B00DB10DB20DEF
:10095000B30DAD0BA42C28082C02031DB92C2708BD
:100960002B02031DB92C26082A02031DB92C2508C9
:100970002902031CBC2CBD2CCC2C2508A90226085E
:10098000031C260FAA022708031C270FAB02280806
:10099000031C280FAC02301401300310A80CA70C64
:1009A000A60CA50CFF3E031DCD2C0130AE02031D8D
:1009B000DA2CDB2CA22C2F080319DF2CE02CEB2CDB
:1009C000B009B109B209B309B00A0319B10A031990
:1009D000B20A0319B30A3308A8003208A700310885
:1009E000A6003008A5000800F700831603135E0870
:1009F000840083175F1C83130130F50060080739FA
:100A0000013E042D0310F50DFF3E031D022D750858
:100A100080047708F50004300310F50CFF3E031D39
:100A20000C2D75080F390A128A11A3210A128A1196
:100A3000831603135E08840083175F1C8313013041
:100A4000F500600CF600F60C760C0739013E2A2DF5
:100A50000310F50DFF3E031D282D750880040D3091
:100A6000F500F50B312D831603135E088400831700
:100A70005F1C83130130F500600CF600F60C760C59
:100A80000739013E452D0310F50DFF3E031D432D93
:100A90007508FF3A800577080F390A128A11A321D9
:100AA0000A128A11831603135E08840083175F1CE1
:100AB00083130130F500600CF600F60C760C073954
:100AC000013E642D0310F50DFF3E031D622D7508D8
:100AD00080040D30F500F50B6B2D831603135E08B3
:100AE000840083175F1C83130130F500600CF6004F
:100AF000F60C760C0739013E7F2D0310F50DFF3EF5
:100B0000031D7D2D7508FF3A800508000130831212
:100B10000313B9006308BB006208BA001F30BC00B1
:100B20000030BD0083160313C101CC2DFF30BC077C
:100B30000318BD0AFF30BD073C08A23E84000A30FE
:100B4000F2000030F3003808F5003708F4000A120C
:100B50008A15C8270A128A117208303E8313800052
:100B600083120313B901FF30BA070318BB0AFF3021
:100B7000BB070A30F2000030F3003808F5003708F0
:100B8000F4000A128A1191270A128A11730883123B
:100B90000313B8007208B70083123C083D04031920
:100BA000D22DD32DF12D37083804031DD82DD92D82
:100BB000962D3908031DDD2DDE2D962D3B08803A3C
:100BC000FF0080307F02031DE72D01303A02031C35
:100BD000EA2DEB2DF12D83120313E618F02DF12DE4
:100BE000962D831203133508AE003608AF003C087B
:100BF000A23EB0003B08B2003A08B1000A128A11C6
:100C0000B0260A128A11080083120313A101A2015F
:100C1000780884008313000884000A128A150A20C9
:100C20000A128A112A3A031D162E172E452E78080D
:100C3000840001308007790884000008FF0002303A
:100C400080077F0884000008A100840A0008A20031
:100C5000562E2208F3002108F2000A30F40000307A
:100C6000F5000A128A154E270A128A1183120313FD
:100C700020087207A1000030031801307307A2009A
:100C80007808840001308313800778088400000806
:100C900084000A128A150A200A128A11D03EA00086
:100CA0000A302002031C552E562E292E2208F90048
:100CB0002108F8000800F700831603135E0884007B
:100CC00083175F1C83130130F50060080739013E6C
:100CD0006B2E0310F50DFF3E031D692E7508FF3ABC
:100CE000800577080A128A11A3210A128A11831635
:100CF00003135E08840083175F1C83130130F50023
:100D0000600CF600F60C760C0739013E892E0310B4
:100D1000F50DFF3E031D872E750880040630F60092
:100D20003030F500F50B922EF60B922E0000831654
:100D300003135E08840083175F1C83130130F500E2
:100D4000600CF600F60C760C0739013EA92E031054
:100D5000F50DFF3E031DA72E7508FF3A800508001C
:100D600083120313661CB52EB62EC12E3008F60072
:100D70002E08F7002F08F8000A128A159D270A127C
:100D80008A1183120313B21FC62EC72EC92EB101BA
:100D9000B201B301B401E32E2030F2000030F300C1
:100DA000831203132E08F4002F08F5000A128A118B
:100DB000BB230A128A11013083120313B3070318ED
:100DC000B40A0030B4073408803AF9003208803A97
:100DD0007902031DED2E31083302031CF02EF12E93
:100DE000CC2E831203136618F62EF72E022F30082E
:100DF000F6002E08F7002F08F8000A128A159D2722
:100E00000A128A110800003083120313A400003074
:100E1000A3000030A2000030A100721C102F112F7F
:100E2000282F7608A107770803110318013E03193C
:100E30001A2FA207780803110318013E0319212F66
:100E4000A307790803110318013E0319282FA407EB
:100E50000130A0000310F60DF70DF80DF90DA00BF1
:100E60002A2F01300310F50CF40CF30CF20CFF3EAA
:100E7000031D322F7508740473047204031D412F7F
:100E8000422F0D2F2408F5002308F4002208F30058
:100E90002108F200080083120313A301A401742F98
:100EA00023087807A1007908A0000318A00AA31F4F
:100EB0005A2FA003831203132008A2002208FF0068
:100EC000210884000A128A1500200A128A110A12C7
:100ED0008A11F4240A128A11013083120313A30722
:100EE0000318A40A0030A40723087807A100790892
:100EF000A0000318A00AA31F7E2FA00383120313D0
:100F00002008A2002208FF00210884000A128A1586
:100F100000200A128A11003A031D8F2F902F502FA4
:100F20000800F601F701720873040319982F992F2E
:100F3000CE2F0130F800A52F01300310F20DF30D74
:100F4000FF3E031D9D2F0130F807F31FA82FA92F87
:100F50009C2F01300310F60DF70DFF3E031DAA2F45
:100F600073087502031DB62F72087402031CB92F93
:100F7000BA2FC12F7208F4027308031CF503F5029F
:100F8000761401300310F30CF20CFF3E031DC22F48
:100F90000130F802031DCD2FCE2FA92F7708F300C3
:100FA0007608F2000800831203130C1CD82FD92FE7
:100FB000F92F013083160313A0070318A10A00308C
:100FC000A10700302102653003192002031CE92F1C
:100FD000EA2FF22F0130FA070318FB0A0030FB0753
:100FE000A001A1010B30831203138F00DC308E00AF
:100FF0000C1071088A00700E8300FE0E7E0E090030
:10100000FF1B0A2883137F1883170008840A03191B
:10101000FF0A080008308A000408840A82070034A6
:1010200056346F346C34743461346A34653420342B
:1010300031343A3420340034253430343234753489
:101040003A3425343034323475340034303430346A
:101050003A34303430340034253475342E34253469
:0410600075340034AF
:101D7600073400341A342C343E3464008001840A5B
:101D86000406031900340406C12E03308316031714
:101D9600880089010130831203139F008030831667
:101DA60003139F00080031308312031390000B3099
:101DB6008F00DC308E00831603130C140B178B1761
:101DC6000800831203134C08CE00F62E4A08BE0004
:101DD6004B08BF004E30C0004D08C1000A128A11E0
:101DE6005D220A128A15831203134E0884000A1212
:101DF6008A150A200A128A15003A031D032F042F9A
:101E0600E92ECA01CB010800513083120313D60014
:101E16004F08D7000030D800D901DA01E001E1010E
:101E26005730CA000030CB005008CC005630CD00E9
:101E36000A128A15E4260A128A1583120313590810
:101E46004F07D500550884008313800108008312CC
:101E56000313A001A101422F20087807F900790891
:101E6600840000080A128A11F4240A128A15013025
:101E760083120313A0070318A10A0030A107200844
:101E86007807F9007908840083130008031D4C2F96
:101E96004D2F2F2F0800F601F701721C532F542FD8
:101EA6005A2F7408F6070318F70A7508F707013062
:101EB6000310F40DF50DFF3E031D5B2F01300310DB
:101EC600F30CF20CFF3E031D622F72087304031D10
:101ED6006D2F6E2F502F7708F3007608F20008005A
:101EE600F600752F762F00008330831203139F05AB
:101EF6007608F40001300310F40DFF3E031D7E2F1B
:101F06000310740D9F040330F5009730F400F40BB2
:101F16008A2FF50B8A2F8F2F831203139F149F1876
:101F2600952F962F922F1E08F300831603131E0873
:101F3600F200080083120313AC01AD01BA2F2B087F
:101F4600A900AA012908F2002A08F3007708F4007C
:101F56007808F5000A128A11BB230A128A15013085
:101F660083120313AC070318AD0A0030AD072C0823
:101F76007607A9002908840083130008AB002B0804
:101F8600031DC62FC72FA22F08007208730403195A
:101F9600CD2FCE2FFB2F0130F600DA2F01300310A4
:101FA600F20DF30DFF3E031DD22F0130F607F31F8E
:101FB600DD2FDE2FD12F73087502031DE42F720863
:101FC6007402031CE72FE82FEE2F7208F402730841
:101FD600031CF503F50201300310F30CF20CFF3E6F
:101FE600031DEF2F0130F602031DFA2FFB2FDE2F04
:0A1FF6007508F3007408F2000800FB
:04400E00F12FFF3F50
:00000001FF
