:060000000A128A110C280F
:10000800FE00030EF0000A08F1000A128A11662E9B
:100018000A128A110F280A128A1177270A128A11DE
:10002800E9000A128A1178270A128A11EA000A12CC
:100038008A1179270A128A11EB000A128A117A2783
:100048000A128A11EC000A128A117B270A128A11F5
:10005800ED008313A0308400C6300A128A116F277E
:100068000A128A11E201E301E401E501E601E70170
:10007800E801FA01FB0183010A128A11FD28F40044
:10008800741C472848285D288312031369088400D4
:1000980083176A1C83130130F2006C080739013E8C
:1000A80057280310F20DFF3E031D552872088004DF
:1000B8007228831203136908840083176A1C831348
:1000C8000130F2006C080739013E6C280310F20D6C
:1000D800FF3E031D6A287208FF3A8005F41C752844
:1000E80076288C286908840083176A1C83130130DA
:1000F800F2006C0CF300F30C730C0739013E8628F0
:100108000310F20DFF3E031D842872088004A22804
:100118006908840083176A1C83130130F2006C0C91
:10012800F300F30C730C0739013E9C280310F20D01
:10013800FF3E031D9A287208FF3A8005741DA52802
:10014800A628B9286908840083176A1C831301301C
:10015800F2006D080739013EB3280310F20DFF3E87
:10016800031DB12872088004CC286908840083170D
:100178006A1C83130130F2006D080739013EC62856
:100188000310F20DFF3E031DC4287208FF3A8005D4
:10019800F41DCF28D028E6286908840083176A1C34
:1001A80083130130F2006D0CF300F30C730C073964
:1001B800013EE0280310F20DFF3E031DDE28720801
:1001C8008004FC286908840083176A1C83130130A3
:1001D800F2006D0CF300F30C730C0739013EF6289E
:1001E8000310F20DFF3E031DF4287208FF3A800544
:1001F80008000A128A1164270A128A112030840022
:1002080083120313690883138000840A6A08800034
:10021800840A6B088000840A6C088000840A6D08D0
:1002280080000A128A1162220A128A1100300A1208
:100238008A1119250A128A1101300A128A11192500
:100248000A128A1108300A128A1119250A128A110B
:1002580000300A128A1119250A128A110B30F80087
:100268000A128A118F260A128A110C300A128A1170
:1002780019250A128A1100300A128A1119250A1240
:100288008A111330F8000A128A118F260A128A116D
:100298000C300A128A1119250A128A1100300A1222
:1002A8008A1119250A128A113C30F2000030F30035
:1002B800831203136708F5006608F4000A128A110E
:1002C800C1250A128A11730883160313C70072081E
:1002D800C6003C30F2000030F300831203136708B5
:1002E800F5006608F4000A128A1103260A128A1118
:1002F800730883160313C9007208C800C03083123C
:100308000313CF000130D00083160313470883126C
:100318000313D20083160313460883120313D10074
:1003280083160313490883120313D4008316031397
:10033800480883120313D3000A128A1100270A12ED
:100348008A11C030F8000A128A11DC260A128A11B2
:100358004C290A128A110C288312031340088400BE
:100368008313000884000A128A1146270A128A1188
:10037800253A031DC029C129482A400884000130B4
:100388008007E201E3010030E800FF30E400FF30BD
:10039800E500C801E529E814400884000130800719
:1003A800E5290130C800E5294008840000088400D8
:1003B8000A128A1146270A128A11303A0319CF29DC
:1003C800D52948080319E929EA29D8294008F80055
:1003D8004108F9000A128A11C2240A128A117908FE
:1003E80083120313E3007808E200E31FFC29FD29C8
:1003F800032A6814E209E309E20A0319E30A400838
:10040800840083130008C900490884000A128A116D
:1004180046270A128A11753A031D132A142A402AFC
:10042800410884000008FF00023080077F0884002C
:100438000008C400840A0008C50040088400490870
:10044800013E8000352A3E08B5003F08B600450841
:10045800B8004408B7000A128A1144240A128A1103
:10046800612A490884000A128A1146270A128A1149
:10047800753A0319272A402A831203134008840077
:10048800013083138007612A400884000008840033
:100498000A128A1146270A128A11C200C3014208A9
:1004A800F2004308F3003E08F4003F08F5000A1282
:1004B8008A1112230A128A11402A0800693084001E
:1004C80083120313200883138000840A2108800004
:1004D800840A22088000840A23088000840A2408E9
:1004E800800000306A06031D7B2A05306906031D5B
:1004F8007E2A7F2A832A8316031385019E2A0030C9
:100508006A06031D892A06306906031D8C2A8D2A6E
:10051800912A8316031386019E2A00306A06031D5A
:10052800972A07306906031D9A2A9B2A112B8316DE
:10053800031387011A30F900F830F800F80BA22AE3
:10054800F90BA22A000003300A128A1119250A128F
:100558008A110730F9007D30F800F80BB12AF90B41
:10056800B12A03300A128A1119250A128A11153084
:10057800F900C630F800F80BBF2AF90BBF2A0000B3
:1005880003300A128A1119250A128A1102300A1236
:100598008A1119250A128A1102300A128A1119259C
:1005A8000A128A1108300A128A1119250A128A11A8
:1005B80000300A128A1119250A128A1106300A1205
:1005C8008A1119250A128A11083083120313A5000B
:1005D80025152508F80004300310F80CFF3E031D0C
:1005E800F02A78080F390A128A1119250A128A1175
:1005F8008312031325080F390A128A1119250A12C2
:100608008A1100300A128A1119250A128A1101303A
:100618000A128A1119250A128A1108007408750429
:100628000319172B182B1E2B74087504031D1D2B7B
:100638001E2B252B72080A128A117C270A128A118E
:10064800B12B7408093E83120313A0007508031820
:10065800013E003EA100200884008317211C83135B
:100668000008A200840A0008A30022082304031932
:100678003E2B3F2B712B7408093EA0007508031808
:10068800013E003EA100200884008317211C83132B
:100698000008A200840A0008A3007408023EA4000F
:1006A80075080318013E003EA5002408840083173E
:1006B800251C83130008A600840A0008A700270841
:1006C800803AA8002308803A2802031D6D2B2208CF
:1006D80026020318702B712BB12B74088400831722
:1006E800751C8313000883120313A000840A0008F2
:1006F800A1007408023EA20075080318013E003EDE
:10070800A300220884008317231C831300082007F2
:10071800A5002108A4000318A40A801F942BA40391
:10072800831203132408A600250884008317261CB7
:100738008313720880007408023EA000750803182D
:10074800013E003EA100200884008317211C83136A
:1007580001308007840A0318800A0800F700831212
:1007680003136908840083176A1C83130130F5009A
:100778006B080739013EC22B0310F50DFF3E031D20
:10078800C02B750880047708F50004300310F50CB9
:10079800FF3E031DCA2B75080F390A128A11432020
:1007A8000A128A11831203136908840083176A1CCA
:1007B80083130130F5006B0CF600F60C760C073944
:1007C800013EE82B0310F50DFF3E031DE62B7508CF
:1007D80080040D30F500F50BEF2B83120313690825
:1007E800840083176A1C83130130F5006B0CF60034
:1007F800F60C760C0739013E032C0310F50DFF3E6D
:10080800031D012C7508FF3A800577080F390A1275
:100818008A1143200A128A1183120313690884007B
:1008280083176A1C83130130F5006B0CF600F60C75
:10083800760C0739013E222C0310F50DFF3E031DEF
:10084800202C750880040D30F500F50B292C831237
:1008580003136908840083176A1C83130130F500A9
:100868006B0CF600F60C760C0739013E3D2C031094
:10087800F50DFF3E031D3B2C7508FF3A8005080067
:10088800013083120313B9006308BB006208BA0081
:100898001F30BC000030BD0083160313BF018A2C33
:1008A800FF30BC070318BD0AFF30BD073C08A03E57
:1008B80084000A30F2000030F3003808F5003708E9
:1008C800F4000A128A1103260A128A117208303EAD
:1008D8008313800083120313B901FF30BA0703188A
:1008E800BB0AFF30BB070A30F2000030F3003808BB
:1008F800F5003708F4000A128A11C1250A128A1174
:10090800730883120313B8007208B70083123C08F7
:100918003D040319902C912CAF2C37083804031D83
:10092800962C972C542C3908031D9B2C9C2C542C4A
:100938003B08803AFF0080307F02031DA52C013060
:100948003A02031CA82CA92CAF2C83120313E81815
:10095800AE2CAF2C542C831203133508AE00360886
:10096800AF003C08A03EB0003B08B2003A08B10016
:100978000A128A116E250A128A11080083120313BB
:10098800A101A201780884008313000884000A12D8
:100998008A1146270A128A112A3A031DD42CD52C0B
:1009A800032D780884000130800779088400000846
:1009B800FF00023080077F0884000008A100840A35
:1009C8000008A200142D2208F3002108F2000A30C2
:1009D800F4000030F5000A128A11B7260A128A11AB
:1009E8008312031320087207A10000300318013096
:1009F8007307A20078088400013083138007780801
:100A08008400000884000A128A1146270A128A11F3
:100A1800D03EA0000A302002031C132D142DE72C11
:100A28002208F9002108F8000800F70083120313D0
:100A38006908840083176A1C83130130F5006B086A
:100A48000739013E292D0310F50DFF3E031D272D03
:100A58007508FF3A800577080A128A1143200A129E
:100A68008A11831203136908840083176A1C83138D
:100A78000130F5006B0CF600F60C760C0739013ED8
:100A8800472D0310F50DFF3E031D452D7508800405
:100A98000630F6003030F500F50B502DF60B502DD2
:100AA8000000831203136908840083176A1C8313E8
:100AB8000130F5006B0CF600F60C760C0739013E98
:100AC800672D0310F50DFF3E031D652D7508FF3AD0
:100AD8008005080083120313681C732D742D7F2D65
:100AE8003008F6002E08F7002F08F8000A128A11BD
:100AF8003B260A128A1183120313B21F842D852DF7
:100B0800872DB101B201B301B401A12D2030F2004B
:100B18000030F300831203132E08F4002F08F500A9
:100B28000A128A1112230A128A110130831203133E
:100B3800B3070318B40A0030B4073408803AF90040
:100B48003208803A7902031DAB2D31083302031CA9
:100B5800AE2DAF2D8A2D831203136818B42DB52D31
:100B6800C02D3008F6002E08F7002F08F8000A12EA
:100B78008A113B260A128A110800F701F801720847
:100B880073040319C82DC92DFE2D0130F600D52D8B
:100B980001300310F20DF30DFF3E031DCD2D013082
:100BA800F607F31FD82DD92DCC2D01300310F70DE2
:100BB800F80DFF3E031DDA2D73087502031DE62D9F
:100BC80072087402031CE92DEA2DF12D7208F40253
:100BD8007308031CF503F502771401300310F30CB6
:100BE800F20CFF3E031DF22D0130F602031DFD2D10
:100BF800FE2DD92D7808F3007708F2000800720856
:100C080073040319082E092E362E0130F600152E0E
:100C180001300310F20DF30DFF3E031D0D2E0130C0
:100C2800F607F31F182E192E0C2E73087502031DD4
:100C38001F2E72087402031C222E232E292E7208DE
:100C4800F4027308031CF503F50201300310F30CDA
:100C5800F20CFF3E031D2A2E0130F602031D352E2D
:100C6800362E192E7508F3007408F2000800831256
:100C78000313AC01AD01582E2B08A900AA012908BD
:100C8800F2002A08F3007708F4007808F5000A1241
:100C98008A1112230A128A11013083120313AC0736
:100CA8000318AD0A0030AD072C087607A9002908FB
:100CB800840083130008AB002B08031D642E652EE7
:100CC800402E08000B1D692E6A2E882E0130FA0767
:100CD8000318FB0A0030FB0700307B02653003195C
:100CE8007A02031C782E792E832E01308312031387
:100CF800E6070318E70A0030E707FA01FB01D930D5
:100D08008312031381000B1171088A00700E83008F
:100D1800FE0E7E0E090083120313A001A101A92E65
:100D28002008780784000A128A1146270A128A11B5
:100D38000A128A11B2230A128A110130831203138C
:100D4800A0070318A10A0030A1072008780784002B
:100D58000A128A1146270A128A11003A031DB52E73
:100D6800B62E942E0800F601F701721CBC2EBD2E7B
:100D7800C32E7408F6070318F70A7508F707013039
:100D88000310F40DF50DFF3E031DC42E01300310B2
:100D9800F30CF20CFF3E031DCB2E72087304031DE7
:100DA800D62ED72EB92E7708F3007608F200080061
:100DB80083120313A001A101F42E20087807F9007B
:100DC8007908840000080A128A11B2230A128A11CB
:100DD800013083120313A0070318A10A0030A107EA
:100DE80020087807F9007908840083130008031D98
:100DF800FE2EFF2EE12E0800513083120313D60079
:100E08004F08D7000030D800D901DA01E001E1012C
:100E18005730CA000030CB005008CC005630CD0007
:100E28000A128A1123270A128A11831203135908F6
:100E38004F07D500550884008313800108008312EA
:100E480003134C08CE00352F4A08BE004B08BF00DC
:100E58004E30C0004D08C1000A128A11B0210A1292
:100E68008A11831203134E0884000A128A11462736
:100E78000A128A11003A031D422F432F282FCA0154
:100E8800CB01080007308A000408840A820700346E
:100E980025343034323475343A34253430343234ED
:100EA800753400345434693465346D3470346F34B7
:100EB8003A340034303430343A3430343034003456
:100EC8000730831603138100D9308312031381007E
:100ED8008B168B17080064008001840A0406031926
:100EE80000340406702F073400341A342C343E348E
:020EF8000800F0
:04400E00F12FFF3F50
:00000001FF
