:100000000A128A11CE2FFF1B0D2883137F18831726
:100010000008840A0319FF0A080000308A00040857
:10002000840A8207003456346F346C34743461347B
:100030006A346534203431343A3420340034563450
:100040006F346C34743461346A346534203432343F
:100050003A3420340034253475342E342534753444
:0200600000346A
:100118000800073400341A342C343E34640080015B
:10012800840A04060319003404069328033083164E
:100138000317880089010130831203139F00803060
:10014800831603139F000800323083120313B7008D
:100158003008B8000030B900BA01BB01C101C201C2
:100168003830AC000030AD003108AE003730AF0099
:100178000A128A11CB200A128A11831203133A0831
:100188003007B60036088400831380010800831204
:1001980003132E08FD00DF28831203132C08A00088
:1001A8002D08A1007D30A2002F08A3000A128A1191
:1001B80096250A128A117D0884000A128A110D20D8
:1001C8000A128A11003A031DEA28EB28D028831264
:1001D8000313AC01AD010800F400F228F328000075
:1001E8008330831203139F057408F2000130031053
:1001F800F20DFF3E031DFB280310720D9F04033010
:10020800F3009730F200F20B0729F30B07290C29AA
:10021800831203139F149F18122913290F291E08EC
:10022800F100831603131E08F0000800700871041B
:1002380003191F2920294D290130F4002C290130E8
:100248000310F00DF10DFF3E031D24290130F407C2
:10025800F11F2F293029232971087302031D36291C
:1002680070087202031C39293A2940297008F202E1
:100278007108031CF303F30201300310F10CF00CB6
:10028800FF3E031D41290130F402031D4C294D296D
:1002980030297308F1007208F0000800FB01FC0126
:1002A80077297B087607F9007708F8000318F80A19
:1002B800FB1F5F29F8037808FA007A0883120313F2
:1002C800FF00790884000A128A1103200A128A1191
:1002D8000A128A1171220A128A110130FB070318C7
:1002E800FC0A0030FC077B087607F9007708F8005D
:1002F8000318F80AFB1F8129F8037808FA007A081E
:1003080083120313FF00790884000A128A1103205C
:100318000A128A11003A031D9229932955290800C7
:10032800F401F5017008710403199B299C29D1294E
:100338000130F600A82901300310F00DF10DFF3E41
:10034800031DA0290130F607F11FAB29AC299F290D
:1003580001300310F40DF50DFF3E031DAD297108A2
:100368007302031DB92970087202031CBC29BD2938
:10037800C4297008F2027108031CF303F302741411
:1003880001300310F10CF00CFF3E031DC5290130AC
:10039800F602031DD029D129AC297508F10074088B
:1003A800F00008000030FC000030FB000030FA00CC
:1003B8000030F900701CE129E229F9297408F907CD
:1003C800750803110318013E0319EB29FA0776088B
:1003D80003110318013E0319F229FB0777080311DB
:1003E8000318013E0319F929FC070130F80003102E
:1003F800F40DF50DF60DF70DF80BFB290130031080
:10040800F30CF20CF10CF00CFF3E031D032A7308E9
:10041800720471047004031D122A132ADE297C0851
:10042800F3007B08F2007A08F1007908F000080070
:10043800F50083160313420884008317431C8313B3
:100448000130F30044080739013E2C2A0310F30D4C
:10045800FF3E031D2A2A7308FF3A800575080A1211
:100468008A11DC240A128A118316031342088400B5
:100478008317431C83130130F300440CF400F40C7D
:10048800740C0739013E4A2A0310F30DFF3E031D81
:10049800482A730880040630F4003030F300F30B68
:1004A800532AF40B532A00008316031342088400CE
:1004B8008317431C83130130F300440CF400F40C3D
:1004C800740C0739013E6A2A0310F30DFF3E031D21
:1004D800682A7308FF3A80050800F500831603139D
:1004E800420884008317431C83130130F300440837
:1004F8000739013E812A0310F30DFF3E031D7F2AB1
:10050800730880047508F30004300310F30CFF3EF1
:10051800031D892A73080F390A128A11DC240A126A
:100528008A1183160313420884008317431C83131C
:100538000130F300440CF400F40C740C0739013E4C
:10054800A72A0310F30DFF3E031DA52A7308800494
:100558000D30F300F30BAE2A831603134208840010
:100568008317431C83130130F300440CF400F40C8C
:10057800740C0739013EC22A0310F30DFF3E031D18
:10058800C02A7308FF3A800575080F390A128A11C4
:10059800DC240A128A118316031342088400831785
:1005A800431C83130130F300440CF400F40C740C66
:1005B8000739013EE12A0310F30DFF3E031DDF2A30
:1005C800730880040D30F300F30BE82A8316031335
:1005D800420884008317431C83130130F300440C42
:1005E800F400F40C740C0739013EFC2A0310F30DD7
:1005F800FF3E031DFA2A7308FF3A8005080083129C
:100608000313A901A31F092B0A2B172BA009A10962
:10061800A209A309A00A0319A10A0319A20A031926
:10062800A30A0130A900A71F1A2B1B2B282BA409EA
:10063800A509A609A709A40A0319A50A0319A60A60
:100648000319A70A0130A9060030AD000030AC003C
:100658000030AB000030AA00230822042104200443
:100668000319372B382B832B0130A800462B013078
:10067800FD000310A00DA10DA20DA30DFD0B3D2B38
:100688000130A807A31F492B4A2B3B2B0130FD0043
:100698000310AA0DAB0DAC0DAD0DFD0B4C2B2308B3
:1006A8002702031D612B22082602031D612B210846
:1006B8002502031D612B20082402031C642B652BD3
:1006C800742B2008A4022108031C210FA50222086C
:1006D800031C220FA6022308031C230FA7022A14B7
:1006E80001300310A30CA20CA10CA00CFF3E031DAB
:1006F800752B0130A802031D822B832B4A2B290856
:100708000319872B882B932BAA09AB09AC09AD09D0
:10071800AA0A0319AB0A0319AC0A0319AD0A2D0872
:10072800A3002C08A2002B08A1002A08A00008009A
:10073800720873040319A12BA22BA82B7208730447
:10074800031DA72BA82BAF2B70080A128A118C2027
:100758000A128A11352C7208093EF400730803182E
:10076800013E003EF500740884008317751C83134E
:100778000008F600840A0008F700760877040319D1
:10078800C62BC72BF92B7208093EF400730803180F
:10079800013E003EF500740884008317751C83131E
:1007A8000008F600840A0008F7007208023EF80004
:1007B80073080318013E003EF90078088400831787
:1007C800791C83130008FA00840A0008FB007B08E0
:1007D800803AFC007708803A7C02031DF52B7608E6
:1007E8007A020318F82BF92B352C7208840083172A
:1007F800731C83130008F400840A0008F5007208CB
:10080800023EF60073080318013E003EF700760822
:1008180084008317771C831300087407F900750890
:10082800F8000318F80A801F1A2CF8037808FA0051
:100838007908840083177A1C831370088000720873
:10084800023EF40073080318013E003EF5007408E8
:1008580084008317751C831301308007840A0318EA
:10086800800A0800C2308400760883138000840A56
:1008780077088000840A78088000840A7908800054
:10088800840A7A0880000030831603134306031D88
:100898004F2C05304206031D522C532C552C850134
:1008A8006C2C00304306031D5B2C06304206031DEA
:1008B8005E2C5F2C612C86016C2C00304306031DD6
:1008C800672C07304206031D6A2C6B2CDB2C870132
:1008D8001A30FC00F830FB00FB0B702CFC0B702C62
:1008E800000003300A128A111C220A128A110730EA
:1008F800FC007D30FB00FB0B7F2CFC0B7F2C0330B6
:100908000A128A111C220A128A111530FC00C630FC
:10091800FB00FB0B8D2CFC0B8D2C000003300A1206
:100928008A111C220A128A1102300A128A111C2208
:100938000A128A1102300A128A111C220A128A111A
:1009480008300A128A111C220A128A1100300A126F
:100958008A111C220A128A1106300A128A111C22D4
:100968000A128A110830FD007D157D08FB0004304D
:100978000310FB0CFF3E031DBC2C7B080F390A1229
:100988008A111C220A128A117D080F390A128A114B
:100998001C220A128A1100300A128A111C220A1219
:1009A8008A1101300A128A111C220A128A110800BF
:1009B800F200721CE02CE12CF62C8316031342087B
:1009C80084008317431C83130130F000450807395E
:1009D800013EF02C0310F00DFF3E031DEE2C7008B5
:1009E80080040B2D83160313420884008317431CCD
:1009F80083130130F00045080739013E052D031027
:100A0800F00DFF3E031D032D7008FF3A8005F21C10
:100A18000E2D0F2D252D420884008317431C8313A8
:100A28000130F000450CF100F10C710C0739013E62
:100A38001F2D0310F00DFF3E031D1D2D70088004AF
:100A48003B2D420884008317431C83130130F000B8
:100A5800450CF100F10C710C0739013E352D0310DE
:100A6800F00DFF3E031D332D7008FF3A8005721DFF
:100A78003E2D3F2D522D420884008317431C8313BB
:100A88000130F00046080739013E4C2D0310F00DE7
:100A9800FF3E031D4A2D70088004652D420884001E
:100AA8008317431C83130130F00046080739013EC1
:100AB8005F2D0310F00DFF3E031D5D2D7008FF3AFA
:100AC8008005F21D682D692D7F2D4208840083174B
:100AD800431C83130130F000460CF100F10C710C3B
:100AE8000739013E792D0310F00DFF3E031D772DC8
:100AF80070088004952D420884008317431C8313D3
:100B08000130F000460CF100F10C710C0739013E80
:100B18008F2D0310F00DFF3E031D8D2D7008FF3A39
:100B2800800508008312031322088400000884004B
:100B38000A128A110D200A128A11253A031DA52DC1
:100B4800A62D442E22088400013080078316031343
:100B5800C001C101003083120313EF00FF30ED0024
:100B6800FF30EE00220884000008AA002A0884004A
:100B78000A128A110D200A128A11753A031DC52D11
:100B8800C62D3D2E2308840083130008FF00023081
:100B980080077F0884000008A600840A0008A700D0
:100BA800220884002A08013E8000322E2030AB0043
:100BB8000130AB022B08A03E84000A30F000003060
:100BC800F1002708F3002608F2000A128A111A21F8
:100BD8000A128A117008303E831380000A30F00030
:100BE8000030F100831203132708F3002608F200EF
:100BF8000A128A1194210A128A11710883120313A6
:100C0800A7007008A6002608270403190C2E0D2E2D
:100C18002B2E2B08031D112E122EDC2D2B2E2B080C
:100C2800A03E840083130008A400A5012408F00056
:100C38002508F1002008F2002108F3000A128A11A1
:100C48009C230A128A11013083120313AB07203048
:100C58002B06031D302E312E132E5D2E2A088400FC
:100C68000A128A110D200A128A11753A0319DA2D0F
:100C78003D2E8312031322088400013080075D2E65
:100C880022088400000884000A128A110D200A1222
:100C98008A11A400A5012408F0002508F100200805
:100CA800F2002108F3000A128A119C230A128A1101
:100CB8003D2E08000A128A119A200A128A117630EB
:100CC80084008316031342088000840A43088000C6
:100CD800840A44088000840A45088000840A46087B
:100CE80080000A128A1136240A128A1100300A1268
:100CF8008A111C220A128A1101300A128A111C2236
:100D08000A128A1108300A128A111C220A128A1140
:100D180000300A128A111C220A128A110130F600C8
:100D28008030F7000A128A1152210A128A110830FB
:100D38000A128A111C220A128A110B300A128A110D
:100D48001C220A128A1100300A128A11F0200A1293
:100D58008A11710883120313DE007008DD00003069
:100D6800A3000030A2000330A100FF30A0005D08FE
:100D7800F0005E08F100F201F3010030F7000030E6
:100D8800F600C330F5005030F4000A128A11D6215B
:100D98000A128A11730883120313A7007208A600A7
:100DA8007108A5007008A4000A128A1103230A1208
:100DB8008A11831203132108EA002008E900103081
:100DC800F0002730F1006A08F3006908F2000A12FF
:100DD8008A1194210A128A11710883120313E00000
:100DE8007008DF001030F0002730F1006A08F300C7
:100DF8006908F2000A128A111A210A128A11710866
:100E080083120313E2007008E1004930B000193082
:100E1800B1006008B3005F08B2006208B50061085D
:100E2800B4000A128A11A8200A128A114930F60061
:100E38000030F7000A128A1152210A128A110C3066
:100E48000A128A111C220A128A1100300A128A1107
:100E58001C220A128A110D30F6008030F7000A129F
:100E68008A1152210A128A110C300A128A111C2284
:100E78000A128A110B300A128A111C220A128A11CC
:100E880001300A128A11F0200A128A11710883129D
:100E98000313E4007008E3000030A3000030A20050
:100EA8000330A100FF30A0006308F0006408F100DF
:100EB800F201F3010030F7000030F600C330F5000E
:100EC8005030F4000A128A11D6210A128A117308C6
:100ED80083120313A7007208A6007108A500700802
:100EE800A4000A128A1103230A128A118312031317
:100EF8002108EC002008EB001030F0002730F1004A
:100F08006C08F3006B08F2000A128A1194210A1285
:100F18008A11710883120313E6007008E500103087
:100F2800F0002730F1006C08F3006B08F2000A1299
:100F38008A111A210A128A11710883120313E80010
:100F48007008E7005330B0001930B1006608B300EC
:100F58006508B2006808B5006708B4000A128A116B
:100F6800A8200A128A115330F6000030F7000A123E
:100F78008A1152210A128A11823083120313C8007F
:100F8800DD30C700C70BC62FC80BC62F7A2E0A1232
:100F98008A110028831603130A128A118D200A1257
:100FA8008A11C2000A128A118E200A128A11C300FD
:100FB8000A128A118F200A128A11C4000A128A1191
:100FC80090200A128A11C5000A128A1191200A1269
:100FD8008A11C6008313A0308400C2300A128A1115
:100FE80092200A128A1183120313ED01EE01EF0118
:080FF80083010A128A115E2E2A
:04400E00F12FFF3F50
:00000001FF
