:060000000A128A11EE2F26
:100B84003F3406345B344F3466346D347D3407347B
:100B94007F346F347E088A007F0882000A128A112B
:100BA400CC250A128A118000840A04087D060319E0
:100BB4000034FF0A0319FE0AD02DF501F31FE32DBB
:100BC400E42DEB2DF209F309F20A0319F30A0130BB
:100BD400F500F11FEE2DEF2DF42DF009F109F00AC7
:100BE4000319F10A700871040319F92DFA2D272E3F
:100BF4000130F400062E01300310F00DF10DFF3E1C
:100C0400031DFE2D0130F407F11F092E0A2EFD2DC0
:100C140071087302031D102E70087202031C132E38
:100C2400142E1A2E7008F2027108031CF303F30247
:100C340001300310F10CF00CFF3E031D1B2E01309C
:100C4400F402031D262E272E0A2E750803192B2EB7
:100C54002C2E312EF209F309F20A0319F30A730850
:100C6400F1007208F0000800F501F11F3A2E3B2E46
:100C7400422EF009F109F00A0319F10A0130F500D6
:100C8400F31F452E462E4D2EF209F309F20A0319DD
:100C9400F30A0130F506F601F7017008710403192F
:100CA400542E552E8A2E0130F400612E013003108B
:100CB400F00DF10DFF3E031D592E0130F407F11F15
:100CC400642E652E582E01300310F60DF70DFF3EED
:100CD400031D662E71087302031D722E70087202C2
:100CE400031C752E762E7D2E7008F2027108031CEB
:100CF400F303F302761401300310F10CF00CFF3E01
:100D0400031D7E2E0130F402031D892E8A2E652ECA
:100D1400750803198E2E8F2E942EF609F709F60AFC
:100D24000319F70A7708F1007608F0000800831623
:100D340003138801860183120313A801A901AA01E0
:100D4400AB01A201A3010A30F0000030F100290830
:100D5400F3002808F2000A128A1136260A128A11B0
:100D6400710883120313A5007008A4000A30F00070
:100D74000030F1002908F3002808F2000A128A1151
:100D8400DF250A128A11710883120313A700700861
:100D9400A600A001A101831203132308803AFF00D7
:100DA40080307F02031DD82E01302202031CDB2E6B
:100DB400DC2E212FF73083120313860022082C3EE9
:100DC4008400831300088800C730F800E92EF80B6C
:100DD400E82EEC2EED2EFB308312031386002A0836
:100DE4002C3E8400831300088800C730F800FA2ED4
:100DF400F80BF92EFD2EFE2EFD3083120313860010
:100E040024082C3E8400831300088800C730F800AF
:100E14000B2FF80B0A2F0E2F0F2FFE308312031304
:100E2400860026082C3E8400831300088800C730FF
:100E3400F8001C2FF80B1B2F1F2F202F942F831229
:100E440003132B08803AFF0080307F02031D2C2FF0
:100E540001302A02031C2F2F302F5D2FF73083120D
:100E6400031386002A082C3E84008313000888009C
:100E7400C730F8003D2FF80B3C2F402F412FFB309B
:100E840083120313860024082C3E84008313000875
:100E94008800C730F8004E2FF80B4D2F512F522FDA
:100EA400FD3083120313860026082C3E840083132E
:100EB40000088800192F831203132508803AFF00C5
:100EC40080307F02031D682F01302402031C6B2F26
:100ED4006C2F8F2FF73083120313860024082C3EC7
:100EE4008400831300088800C730F800792FF80BBA
:100EF400782F7C2F7D2FFB30831203138600260866
:100F04002C3E8400831300088800C730F8008A2F21
:100F1400F80B892F8D2F8E2F942FF7308312031304
:100F24008600562F013083120313A0070318A10A69
:100F34000030A1072108803AFF0080307F02031DA2
:100F4400A52F02302002031CA82FA92FCD2E01307B
:100F540083120313A8070318A90A0030A9076430F1
:100F640028062904031DB72FB82FC02F0130AA0764
:100F74000318AB0A0030AB07A801A9010A302A06FE
:100F84002B04031DC62FC72FCF2F0130A207031830
:100F9400A30A0030A307AA01AB01093022062304E7
:100FA400031DD52FD62FA52E09302A062B04031D89
:100FB400DC2FDD2FA52E093028062904031DE32F7D
:100FC400E42FA52EA801A901AA01AB01A201A30146
:100FD400A52E0A128A11002883133630FD0005302D
:100FE400FE00C230FF002C3084000A128A11D02582
:0C0FF4000A128A1183010A128A11992E38
:04400E00F12FFF3F50
:00000001FF
