:100000000A128A11DE2F00308A000408840A82074F
:100010000034483465346C346C346F3420345734D5
:0C0020006F3472346C34643421340034CA
:1009F200073400341A342C343E340D2D760884002A
:100A02000A128A1103200A128A110A128A11E62591
:100A12000A128A110130F607760884000A128A1136
:100A220003200A128A11003A031D182D192DFF2CDA
:100A32000800F50083120313280884008317291C79
:100A420083130130F3002A080739013E2A2D0310CF
:100A5200F30DFF3E031D282D7308FF3A800575082C
:100A62000A128A1124270A128A11831203132808F0
:100A720084008317291C83130130F3002A0CF4002D
:100A8200F40C740C0739013E482D0310F30DFF3EA0
:100A9200031D462D730880040630F4003030F30045
:100AA200F30B512DF40B512D000083120313280870
:100AB20084008317291C83130130F3002A0CF400ED
:100AC200F40C740C0739013E682D0310F30DFF3E40
:100AD200031D662D7308FF3A8005080076308400F6
:100AE2008312031328088000840A29088000840ADC
:100AF2002A088000840A2B088000840A2C088000BF
:100B02000A128A1178260A128A1100300A128A11F0
:100B12001A250A128A1101300A128A111A250A129A
:100B22008A1108300A128A111A250A128A11003013
:100B32000A128A111A250A128A110130F6000A12C3
:100B42008A11FE240A128A110C300A128A111A25FD
:100B52000A128A1100300A128A111A250A128A11FF
:100B6200413083120313A70027080A128A11E625CF
:100B72000A128A11023083120313A6008630A500DE
:100B82009830A400A40BC32DA50BC32DA60BC32D17
:100B92000000013083120313A70751302702031C00
:100BA200D32DD42DB52D063083120313A600133096
:100BB200A500AD30A400A40BDC2DA50BDC2DA60BEB
:100BC200DC2D862D0A128A110028F50083120313E8
:100BD200280884008317291C83130130F3002A0894
:100BE2000739013EF62D0310F30DFF3E031DF42DD0
:100BF200730880047508F30004300310F30CFF3E01
:100C0200031DFE2D73080F390A128A1124270A12B6
:100C12008A1183120313280884008317291C831363
:100C22000130F3002A0CF400F40C740C0739013E75
:100C32001C2E0310F30DFF3E031D1A2E73088004B1
:100C42000D30F300F30B232E8312031328088400C4
:100C52008317291C83130130F3002A0CF400F40CCF
:100C6200740C0739013E372E0310F30DFF3E031DAE
:100C7200352E7308FF3A800575080F390A128A115A
:100C820024270A128A118312031328088400831767
:100C9200291C83130130F3002A0CF400F40C740CA9
:100CA2000739013E562E0310F30DFF3E031D542E4D
:100CB200730880040D30F300F30B5D2E83120313CF
:100CC200280884008317291C83130130F3002A0C9F
:100CD200F400F40C740C0739013E712E0310F30D6D
:100CE200FF3E031D6F2E7308FF3A8005080028306F
:100CF2008400760883138000840A77088000840ABF
:100D020078088000840A79088000840A7A088000C2
:100D12000030831203132906031D912E0530280685
:100D2200031D942E952E992E831603138501B42E3E
:100D320000302906031D9F2E06302806031DA22E11
:100D4200A32EA72E831603138601B42E0030290684
:100D5200031DAD2E07302806031DB02EB12E232F02
:100D62008316031387011A30FC00F830FB00FB0BDB
:100D7200B82EFC0BB82E000003300A128A111A2575
:100D82000A128A110730FC007D30FB00FB0BC72ED4
:100D9200FC0BC72E03300A128A111A250A128A1175
:100DA2001530FC00C630FB00FB0BD52EFC0BD52EFC
:100DB200000003300A128A111A250A128A1102301F
:100DC2000A128A111A250A128A1102300A128A118B
:100DD2001A250A128A1108300A128A111A250A12D1
:100DE2008A1100300A128A111A250A128A11063053
:100DF2000A128A111A250A128A110830FD007D157D
:100E02007D08FB0004300310FB0CFF3E031D042F82
:100E12007B080F390A128A111A250A128A117D08D3
:100E22000F390A128A111A250A128A1100300A127F
:100E32008A111A250A128A1101300A128A111A25F8
:100E42000A128A110800F200721C282F292F3E2F45
:100E520083120313280884008317291C831301308B
:100E6200F0002B080739013E382F0310F00DFF3E2A
:100E7200031D362F70088004532F83120313280892
:100E820084008317291C83130130F0002B080739D3
:100E9200013E4D2F0310F00DFF3E031D4B2F700836
:100EA200FF3A8005F21C562F572F6D2F2808840019
:100EB2008317291C83130130F0002B0CF100F10C75
:100EC200710C0739013E672F0310F00DFF3E031D21
:100ED200652F70088004832F280884008317291C3B
:100EE20083130130F0002B0CF100F10C710C073967
:100EF200013E7D2F0310F00DFF3E031D7B2F700876
:100F0200FF3A8005721D862F872F9A2F28088400AA
:100F12008317291C83130130F0002C080739013E86
:100F2200942F0310F00DFF3E031D922F70088004D2
:100F3200AD2F280884008317291C83130130F00089
:100F42002C080739013EA72F0310F00DFF3E031DA9
:100F5200A52F7008FF3A8005F21DB02FB12FC72FC1
:100F6200280884008317291C83130130F0002C0CFD
:100F7200F100F10C710C0739013EC12F0310F00D85
:100F8200FF3E031DBF2F70088004DD2F2808840058
:100F92008317291C83130130F0002C0CF100F10C93
:100FA200710C0739013ED72F0310F00DFF3E031DD0
:100FB200D52F7008FF3A800508000A128A11F92419
:100FC2000A128A11A8000A128A11FA240A128A1134
:100FD200A9000A128A11FB240A128A11AA000A1213
:100FE2008A11FC240A128A11AB000A128A11FD240A
:0E0FF2000A128A11AC0083010A128A116F2DB7
:04400E00F12FFF3F50
:00000001FF
