:060000000A128A11122809
:10000800FE00030E83120313BE000408BF000A0893
:10001800C0007F08C1000A128A113D280A128A11FD
:10002800152883133330FD000130FE00F530FF0042
:10003800203084000A128A110C220A128A110A122C
:100048008A1121220A128A11FC000A128A1122221C
:100058000A128A11FD00B301B401B501B601B70156
:10006800B801B901BA01BB01BC0183010A128A11A6
:1000780066298B1C402841289E288B130A128A1156
:10008800B2210A128A11710883120313BC00700886
:10009800BB00FA01FB017A0883120313BD003D0778
:1000A800333E840083138001840A80010130FA07FB
:1000B8000318FB0A0030FB077B08803AFF008030FA
:1000C8007F02031D692804307A02031C6C286D28FE
:1000D8004F28831203133B083C040319742875281E
:1000E8007F280A128A110D210A128A110330FC0096
:1000F8000030FD008A280A128A11A9200A128A11E2
:100108000130FC020030031CFD03FD0283120313BF
:10011800061C8F2890288A287C087D04031D9528B2
:1001280096289C280A128A11A9200A128A11962850
:100138008B178B104108FF0040088A003F08840095
:100148003E0E8300FE0E7E0E0900F101F201FE3024
:1001580083120313870028088800C730F000B428EA
:10016800F00BB328B728B828FD3083120313870093
:1001780029088800C730F000C128F00BC028C4281F
:10018800C528FB308312031387002A088800C7306C
:10019800F000CE28F00BCD28D128D228F7308312D2
:1001A800031387002B088800C730F000DB28F00B0A
:1001B800DA28DE28DF287C087D040319E428E528EE
:1001C800F028831203138617C730F000EB28F00BD2
:1001D800EA28EE28EF28F428831203130617E828E4
:1001E8000130F1070318F20A0030F2077208803A6A
:1001F800FF0080307F02031D032919307102031CA0
:1002080006290729AB280A128A111B220A128A1109
:100218000800F101F201FE308312031387002C0855
:100228008800C730F0001829F00B17291B291C2952
:10023800FD308312031387002D088800C730F000B3
:100248002529F00B242928292929FB308312031397
:1002580087002E088800C730F0003229F00B3129BA
:1002680035293629F7308312031387002F088800B1
:10027800C730F0003F29F00B3E2942294329831259
:1002880003138616C730F0004929F00B48294C297A
:100298004D290130F1070318F20A0030F2077208FD
:1002A800803AFF0080307F02031D5C2919307102FB
:1002B800031C5F2960290F290A128A111B220A12BE
:1002C8008A11080083160317880189017F30831675
:1002D800031381051F3086008701880183120313E9
:1002E8008601870188018316031301130B168B17E8
:1002F8008312031386188129822986290130B300C5
:100308000030B400061989298A298E290130B500E0
:100318000030B60086199129922996290130B70034
:100328000030B800061A99299A299E290130B90087
:100338000030BA00FE3087007C082F3E840083130B
:1003480000088800C73083120313C200AB29C20B10
:10035800AA29AE297C290A128A111228F801F90162
:10036800DD297808F2007207333E84008313000801
:10037800F300840A0008F4007808F5007507203EA9
:1003880084000008F600840A0008F700740877065D
:10039800031DD029730876060319D329D429D72930
:1003A800F001F101F4290130F8070318F90A0030C7
:1003B800F9077908803AFF0080307F02031DE6299B
:1003C800043078020318E929EA29F0297C087D0419
:1003D800031DEF29F029B5290130F0000030F100A4
:1003E800080001340034013400340134003401348D
:1003F80000347134773430343834733477346D34AE
:100408006D3406345B344F347E088A007F088200DE
:100418000A128A1108220A128A118000840A040822
:100428007D0603190034FF0A0319FE0A0C2A8312F9
:0E0438000313061386138612080003340034E3
:04400E00F12FFF3F50
:00000001FF
