:060000000A128A11E62F2E
:10001000F500831203135908840083175A1C8313B5
:100020000130F3005B080739013E18280310F30D77
:10003000FF3E031D1628730880047508F300043082
:100040000310F30CFF3E031D202873080F390A121A
:100050008A1512260A128A11831203135908840082
:1000600083175A1C83130130F3005B0CF400F40C6B
:10007000740C0739013E3E280310F30DFF3E031DAB
:100080003C28730880040D30F300F30B45288312DD
:1000900003135908840083175A1C83130130F3009B
:1000A0005B0CF400F40C740C0739013E5928031062
:1000B000F30DFF3E031D57287308FF3A80057508AE
:1000C0000F390A128A1512260A128A118312031393
:1000D0005908840083175A1C83130130F3005B0C0A
:1000E000F400F40C740C0739013E78280310F30D6A
:1000F000FF3E031D7628730880040D30F300F30BD8
:100100007F28831203135908840083175A1C831312
:100110000130F3005B0CF400F40C740C0739013E61
:1001200093280310F30DFF3E031D91287308FF3A37
:100130008005080001300A128A1519220A128A1154
:100140007108FC007008FB00831203135E08031D96
:10015000AA28AB28C6285F08803EF90004300310A7
:10016000F90CFF3E031DAF2879080F390A128A15D2
:10017000C2220A128A11831203135F08803E0F39CC
:100180000A128A15C2220A128A1127295E03031D48
:10019000CA28CB28E6285F08C03EF90004300310C7
:1001A000F90CFF3E031DCF2879080F390A128A1572
:1001B000C2220A128A11831203135F08C03E0F394C
:1001C0000A128A15C2220A128A11272902305E06F3
:1001D000031DEB28EC2807295F08943EF900043042
:1001E0000310F90CFF3E031DF02879080F390A129D
:1001F0008A15C2220A128A11831203135F08943EE1
:100200000F390A128A15C2220A128A1127290330CD
:100210005E06031D0C290D2927295F08D43EF9002D
:1002200004300310F90CFF3E031D112979080F3922
:100230000A128A15C2220A128A11831203135F0856
:10024000D43E0F390A128A15C2220A128A1141308D
:10025000F6000A128A15A7210A128A1102307C02BE
:10026000593003197B02031C36293729412983128F
:1002700003135E0803193D293E2941290130DE029E
:10028000542901307C02903003197B02031849295C
:100290004A2954290230831203135E02031851299C
:1002A000522954290130DE07831203135E08031D0F
:1002B0005A295B2976295F08803EF9000430031033
:1002C000F90CFF3E031D5F2979080F390A128A15C0
:1002D000C2220A128A11831203135F08803E0F396B
:1002E0000A128A15C2220A128A11D7295E03031D37
:1002F0007A297B2996295F08C03EF9000430031053
:10030000F90CFF3E031D7F2979080F390A128A155F
:10031000C2220A128A11831203135F08C03E0F39EA
:100320000A128A15C2220A128A11D72902305E06E1
:10033000031D9B299C29B7295F08943EF9000430CE
:100340000310F90CFF3E031DA02979080F390A128A
:100350008A15C2220A128A11831203135F08943E7F
:100360000F390A128A15C2220A128A11D7290330BC
:100370005E06031DBC29BD29D7295F08D43EF900BC
:1003800004300310F90CFF3E031DC12979080F3911
:100390000A128A15C2220A128A11831203135F08F5
:1003A000D43E0F390A128A15C2220A128A1100306D
:1003B0000A128A1108200A128A110D30FA00FB3045
:1003C000F900F90BE129FA0BE129E62908000030D0
:1003D0000A128A1519220A128A117108831203134C
:1003E000BB007008BA005F08BC005E08031DF92955
:1003F000FA29152A5F08803EB40004300310B40CBB
:10040000FF3E031DFE2934080F390A128A15C22245
:100410000A128A11831203135F08803E0F390A12F1
:100420008A15C2220A128A11762A5E03031D192A2E
:100430001A2A352A5F08C03EB40004300310B40CF9
:10044000FF3E031D1E2A34080F390A128A15C222E4
:100450000A128A11831203135F08C03E0F390A1271
:100460008A15C2220A128A11762A02305E06031DFC
:100470003A2A3B2A562A5F08943EB40004300310FF
:10048000B40CFF3E031D3F2A34080F390A128A15A7
:10049000C2220A128A11831203135F08943E0F3995
:1004A0000A128A15C2220A128A11762A03305E06BF
:1004B000031D5B2A5C2A762A5F08D43EB400043010
:1004C0000310B40CFF3E031D602A34080F390A12D2
:1004D0008A15C2220A128A11831203135F08D43EBE
:1004E0000F390A128A15C2220A128A114130F60007
:1004F0000A128A15A7210A128A11023083120313E5
:100500003B02593003193A02031C872A882A9B2A86
:1005100013305F02031C8D2A8E2A912AB601B7017F
:10052000982A5F08013EB600003003180130B7007A
:100530003608DF00B72A01303B02903003193A0237
:100540000318A32AA42AB72A5F08031DA82AA92AE8
:10055000AE2A1330B8000030B900B52A5F08FF3E5C
:10056000B800FF3003180030B9003808DF003C083D
:10057000031DBB2ABC2AC22A13305F060319C12AF5
:10058000C22ACD2A13303C06031DC72AC82AD72AFF
:100590005F08031DCC2ACD2AD72A0A128A156125A5
:1005A0000A128A110A128A15BC230A128A118312AE
:1005B00003135E08031DDD2ADE2AF92A5F08803E48
:1005C000B40004300310B40CFF3E031DE22A3408CB
:1005D0000F390A128A15C2220A128A1183120313D2
:1005E0005F08803E0F390A128A15C2220A128A1148
:1005F0005A2B5E03031DFD2AFE2A192B5F08C03EFD
:10060000B40004300310B40CFF3E031D022B340869
:100610000F390A128A15C2220A128A118312031391
:100620005F08C03E0F390A128A15C2220A128A11C7
:100630005A2B02305E06031D1E2B1F2B3A2B5F0820
:10064000943EB40004300310B40CFF3E031D232B72
:1006500034080F390A128A15C2220A128A1183122B
:1006600003135F08943E0F390A128A15C2220A1238
:100670008A115A2B03305E06031D3F2B402B5A2B49
:100680005F08D43EB40004300310B40CFF3E031DD9
:10069000442B34080F390A128A15C2220A128A1111
:1006A000831203135F08D43E0F390A128A15C2223F
:1006B0000A128A1100300A128A1108200A128A11BD
:1006C0000D3083120313B500FB30B400B40B662B5E
:1006D000B50B662B0800831203135E08031D712BF4
:1006E000722B8D2B5F08803EA00004300310A00CFD
:1006F000FF3E031D762B20080F390A128A15C222ED
:100700000A128A11831203135F08803E0F390A12FE
:100710008A15C2220A128A11EE2B5E03031D912B49
:10072000922BAD2B5F08C03EA00004300310A00C3C
:10073000FF3E031D962B20080F390A128A15C2228C
:100740000A128A11831203135F08C03E0F390A127E
:100750008A15C2220A128A11EE2B02305E06031D90
:10076000B22BB32BCE2B5F08943EA00004300310B5
:10077000A00CFF3E031DB72B20080F390A128A1563
:10078000C2220A128A11831203135F08943E0F39A2
:100790000A128A15C2220A128A11EE2B03305E0653
:1007A000031DD32BD42BEE2B5F08D43EA0000430C6
:1007B0000310A00CFF3E031DD82B20080F390A128E
:1007C0008A15C2220A128A11831203135F08D43ECB
:1007D0000F390A128A15C2220A128A1104300A122B
:1007E0008A1108200A128A11831203138515013019
:1007F000FA00F901831203135F087A07A000A10130
:10080000A10D2108803AFF0080307F02031D0A2CD1
:100810001430200203180D2C0E2CC92C8312031344
:100820005E08031D142C152C3C2C5F087A07A000D1
:10083000A101A10D2008803EA20021080318013E5D
:10084000003EA3000430A400230DA30CA20CA40BB3
:10085000242C22080F390A128A15C2220A128A1180
:100860007A08831203135F07803E0F390A128A1534
:10087000C2220A128A11C12C5E03031D402C412C96
:10088000682C5F087A07A000A101A10D2008C03ED6
:10089000A20021080318013E003EA3000430A4007A
:1008A000230DA30CA20CA40B502C22080F390A1202
:1008B0008A15C2220A128A117A08831203135F076B
:1008C000C03E0F390A128A15C2220A128A11C12C9F
:1008D00002305E06031D6D2C6E2C952C5F087A0786
:1008E000A000A101A10D2008943EA2002108031838
:1008F000013E003EA3000430A400230DA30CA20C73
:10090000A40B7D2C22080F390A128A15C2220A1262
:100910008A117A08831203135F07943E0F390A1273
:100920008A15C2220A128A11C12C03305E06031DE9
:100930009A2C9B2CC12C5F087A07A000A101A10D65
:100940002008D43EA20021080318013E003EA30067
:100950000430A400230DA30CA20CA40BAA2C220883
:100960000F390A128A15C2220A128A117A088312D2
:1009700003135F07D43E0F390A128A15C2220A12E6
:100980008A112D300A128A1108200A128A110130A8
:10099000F9007A08831203135F02031CD02CD12CB8
:1009A0009E2D5E08031DD52CD62C022D5F08A000BD
:1009B000A1012108A3007A082002A200031CA303BE
:1009C0002208803EA40023080318013E003EA50033
:1009D0000430A600250DA50CA40CA60BEA2C2408B7
:1009E0000F390A128A15C2220A128A117A08831252
:1009F00003135F02803E0F390A128A15C2220A12BF
:100A00008A11962D5E03031D062D072D332D5F08D9
:100A1000A000A1012108A3007A082002A200031C63
:100A2000A3032208C03EA40023080318013E003E91
:100A3000A5000430A600250DA50CA40CA60B1B2DAB
:100A400024080F390A128A15C2220A128A117A085A
:100A5000831203135F02C03E0F390A128A15C222A5
:100A60000A128A11962D02305E06031D382D392D8B
:100A7000652D5F08A000A1012108A3007A082002CB
:100A8000A200031CA3032208943EA4002308031819
:100A9000013E003EA5000430A600250DA50CA40CC7
:100AA000A60B4D2D24080F390A128A15C2220A12EC
:100AB0008A117A08831203135F02943E0F390A12D7
:100AC0008A15C2220A128A11962D03305E06031D72
:100AD0006A2D6B2D962D5F08A000A1012108A300AF
:100AE0007A082002A200031CA3032208D43EA4001B
:100AF00023080318013E003EA5000430A600250D82
:100B0000A50CA40CA60B7F2D24080F390A128A15F8
:100B1000C2220A128A117A08831203135F02D43E9A
:100B20000F390A128A15C2220A128A112D300A12AE
:100B30008A1108200A128A110130F9001A30831232
:100B40000313A100F730A000A00BA42DA10BA42D2E
:100B5000A92D831203135F087A07A000A101A10D3C
:100B60002108803AFF0080307F02031DB92D143028
:100B700020020318BC2DBD2D772E831203135E08AF
:100B8000031DC32DC42DEB2D5F087A07A000A10122
:100B9000A10D2008803EA20021080318013E003E5E
:100BA000A3000430A400230DA30CA20CA40BD32D8E
:100BB00022080F390A128A15C2220A128A117A08EB
:100BC000831203135F07803E0F390A128A15C2226F
:100BD0000A128A11702E5E03031DEF2DF02D172EC1
:100BE0005F087A07A000A101A10D2008C03EA20065
:100BF00021080318013E003EA3000430A400230D89
:100C0000A30CA20CA40BFF2D22080F390A128A157F
:100C1000C2220A128A117A08831203135F07C03EA8
:100C20000F390A128A15C2220A128A11702E023056
:100C30005E06031D1C2E1D2E442E5F087A07A000A1
:100C4000A101A10D2008943EA20021080318013E35
:100C5000003EA3000430A400230DA30CA20CA40B9F
:100C60002C2E22080F390A128A15C2220A128A1162
:100C70007A08831203135F07943E0F390A128A150C
:100C8000C2220A128A11702E03305E06031D492EFD
:100C90004A2E702E5F087A07A000A101A10D20083E
:100CA000D43EA20021080318013E003EA3000430F8
:100CB000A400230DA30CA20CA40B592E22080F395B
:100CC0000A128A15C2220A128A117A0883120313A1
:100CD0005F07D43E0F390A128A15C2220A128A11FE
:100CE0004130F6000A128A15A7210A128A117A08E1
:100CF000831203135F02031C7E2E7F2E4B2F5E0890
:100D0000031D832E842EB02E5F08A000A1012108B0
:100D1000A3007A082002A200031CA3032208803E3D
:100D2000A40023080318013E003EA5000430A600DD
:100D3000250DA50CA40CA60B982E24080F390A1219
:100D40008A15C2220A128A117A08831203135F02DB
:100D5000803E0F390A128A15C2220A128A11442FC4
:100D60005E03031DB42EB52EE12E5F08A000A10185
:100D70002108A3007A082002A200031CA303220872
:100D8000C03EA40023080318013E003EA500043025
:100D9000A600250DA50CA40CA60BC92E24080F39FE
:100DA0000A128A15C2220A128A117A0883120313C0
:100DB0005F02C03E0F390A128A15C2220A128A1136
:100DC000442F02305E06031DE62EE72E132F5F0828
:100DD000A000A1012108A3007A082002A200031CA0
:100DE000A3032208943EA40023080318013E003EFA
:100DF000A5000430A600250DA50CA40CA60BFB2E07
:100E000024080F390A128A15C2220A128A117A0896
:100E1000831203135F02943E0F390A128A15C2220D
:100E20000A128A11442F03305E06031D182F192F52
:100E3000442F5F08A000A1012108A3007A08200226
:100E4000A200031CA3032208D43EA4002308031815
:100E5000013E003EA5000430A600250DA50CA40C03
:100E6000A60B2D2F24080F390A128A15C2220A1246
:100E70008A117A08831203135F02D43E0F390A12D3
:100E80008A15C2220A128A114130F6000A128A1506
:100E9000A7210A128A117908031D4F2F502F512FB5
:100EA000592F0130FA0714307A02031C582F592F9A
:100EB000F92B831203135E08031D5F2F602F7B2F16
:100EC0005F08803EA00004300310A00CFF3E031D0D
:100ED000642F20080F390A128A15C2220A128A11B9
:100EE000831203135F08803E0F390A128A15C2224B
:100EF0000A128A11DC2F5E03031D7F2F802F9B2F88
:100F00005F08C03EA00004300310A00CFF3E031D8C
:100F1000842F20080F390A128A15C2220A128A1158
:100F2000831203135F08C03E0F390A128A15C222CA
:100F30000A128A11DC2F02305E06031DA02FA12F9A
:100F4000BC2F5F08943EA00004300310A00CFF3EAD
:100F5000031DA52F20080F390A128A15C2220A1272
:100F60008A11831203135F08943E0F390A128A15FF
:100F7000C2220A128A11DC2F03305E06031DC12F24
:100F8000C22FDC2F5F08D43EA00004300310A00C59
:100F9000FF3E031DC62F20080F390A128A15C222F0
:100FA0000A128A11831203135F08D43E0F390A1202
:100FB0008A15C2220A128A1100300A128A110820E8
:100FC0000A128A11831203138511080083136030FB
:100FD000FD000930FE004F30FF00593084000A1236
:100FE0008A1598210A128A113E30840059300A125B
:100FF0008A1556210A128A1183010A128A15CC2EEB
:1010000008308A000408840A820700340A341F3436
:101010001F340A34043404340434003400340634F5
:101020000F341F341F340E340034003404340E34B3
:101030000E341F3404340434043400340A340E34BF
:1010400015341F340E341F340E3400341034183469
:101050001C341F341C341C340C340034013403346D
:1010600007341F3407340734063400341F341F3468
:101070001F341F341F341F341F341F340E341F34E9
:101080000E341F3415340E340A3400342034003446
:10129E00073400341A342C343E34023408346400DB
:1012AE008001840A040603190034040657298312A8
:1012BE000313051D6329642969290A128A116B23F8
:1012CE000A128A1508007008FF3E83120313D50018
:1012DE0071080318013EFF3ED600D701D801080061
:1012EE000330831603178800890180308316031399
:1012FE009F000130831203139F000800F700770848
:10130E000A128A1108200A128A15C730F6008F2990
:10131E00F60B8E299229932908007E088A007F08F1
:10132E0082000A128A1594210A128A158000840AF4
:10133E0004087D0603190034FF0A0319FE0A9829D2
:10134E00F701F801BD297708760784000A128A157D
:10135E0000200A128A150A128A1108200A128A150A
:10136E000130F7070318F80A0030F80777087607F8
:10137E0084000A128A1500200A128A15003A031DEB
:10138E00C929CA29AA290800FA0030307A05F600C0
:10139E0040307604F7000030F8000430F900780D84
:1013AE00F80CF70CF90BD62977080A128A15C22207
:1013BE000A128A157A080F3940380A128A15C22283
:1013CE000A128A15C730F600EC29F60BEB29EF2925
:1013DE00F02908003130FB0001300A128A15432231
:1013EE000A128A150D300A128A15C2220A128A159D
:1013FE0004300A128A15C2220A128A1583120313A6
:10140E00A20101300A128A1108200A128A1501302F
:10141E0083120313A20714302202031C172A182A60
:10142E00082A0800F4001B2A1C2A000083308312AD
:10143E0003139F057408F20001300310F20DFF3EF6
:10144E00031D242A0310720D9F040330F3009730FE
:10145E00F200F20B302AF30B302A352A83120313D3
:10146E009F149F183B2A3C2A382A1E08F100831627
:10147E0003131E08F000080083120313A0002008B7
:10148E000739FC0002300310FC0DFF3E031D4A2AF3
:10149E0003107C0DA00020080A128A15CB210A1217
:1014AE008A150330FD009730FC00FC0B5C2AFD0B07
:1014BE005C2A612A83120313A10121087B07840091
:1014CE000A128A1500200A128A150A128A15852117
:1014DE000A128A15013083120313A1070830210264
:1014EE00031C7A2A7B2A642A08000030FC00003094
:1014FE00FB000030FA000030F900701C872A882AA1
:10150E009F2A7408F907750803110318013E031981
:10151E00912AFA07760803110318013E0319982A37
:10152E00FB07770803110318013E03199F2AFC07D6
:10153E000130F8000310F40DF50DF60DF70DF80B54
:10154E00A12A01300310F30CF20CF10CF00CFF3E4B
:10155E00031DA92A7308720471047004031DB82AAE
:10156E00B92A842A7C08F3007B08F2007A08F1007D
:10157E007908F0000800F50083120313590884005F
:10158E0083175A1C83130130F3005B080739013EA1
:10159E00D22A0310F30DFF3E031DD02A7308FF3A23
:1015AE00800575080A128A1512260A128A158312E8
:1015BE0003135908840083175A1C83130130F30058
:1015CE005B0CF400F40C740C0739013EF02A031086
:1015DE00F30DFF3E031DEE2A730880040D30F30059
:1015EE00F30BF72A831203135908840083175A1C2E
:1015FE0083130130F3005B0CF400F40C740C073908
:10160E00013E0B2B0310F30DFF3E031D092B730838
:10161E00FF3A80050800013083120313A200003048
:10162E00A3000030A4000030A5005808F3005708AE
:10163E00F2005608F1005508F0004C30F7009530D6
:10164E00F6007F30F5002D30F4000A128A157C2248
:10165E000A128A15700883120313A2077108031861
:10166E00710F3A2B3B2BA30772080318720F402BF6
:10167E00412BA40773080318730AA5072508D80081
:10168E002408D7002308D6002208D5005508A2004A
:10169E005608A3005708A4005808A50011300310DF
:1016AE00A50CA40CA30CA20CFF3E031D562B230865
:1016BE00A1002208A000080083120313AB01A91F8A
:1016CE00692B6A2B712BA809A909A80A0319A90A63
:1016DE000130AB00A71F742B752B7A2BA609A70917
:1016EE00A60A0319A70A2608270403197F2B802BA5
:1016FE00AD2B0130AA008C2B01300310A60DA70DC7
:10170E00FF3E031D842B0130AA07A71F8F2B902BA2
:10171E00832B27082902031D962B26082802031C5B
:10172E00992B9A2BA02B2608A8022708031CA90385
:10173E00A90201300310A70CA60CFF3E031DA12B1E
:10174E000130AA02031DAC2BAD2B902B2B080319D5
:10175E00B12BB22BB72BA809A909A80A0319A90AFC
:10176E002908A7002808A6000800FB01BE2B7B084D
:10177E00943EF90004300310F90CFF3E031DC22BFA
:10178E0079080F390A128A15C2220A128A157B08A5
:10179E00943E0F390A128A15C2220A128A157B0844
:1017AE003E3E84002030831300060319DF2BE02B0E
:1017BE00EA2B7B083E3E840000080A128A1108209C
:1017CE000A128A15F12B4130F6000A128A15A7214A
:1017DE000A128A150130FB0714307B02031CF82B0A
:1017EE00F92BBE2BFA01FB2B7A08523E8400831391
:1017FE000008C03EF90004300310F90CFF3E031D33
:10180E00032C79080F390A128A15C2220A128A1578
:10181E007A08523E840083130008C03E0F390A1224
:10182E008A15C2220A128A1506300A128A11082057
:10183E000A128A150130FA0703307A02031C282C8B
:10184E00292CFB2B080083120313A2012E2C220835
:10185E00523E840083130008C03EF900043003108A
:10186E00F90CFF3E031D362C79080F390A128A1522
:10187E00C2220A128A15831203132208523E8400D2
:10188E0083130008C03E0F390A128A15C2220A12AB
:10189E008A154130F6000A128A15A7210A128A15F6
:1018AE00831203132208523E840083130008031987
:1018BE00612C622C6D2C2208523E84000008FF3EE3
:1018CE00A000FF3003180030A100712C1330A000CF
:1018DE000030A1002208523E840020088000220819
:1018EE00523E84000008C03EF90004300310F90C8B
:1018FE00FF3E031D7D2C79080F390A128A15C2226C
:10190E000A128A15831203132208523E840083138F
:10191E000008C03E0F390A128A15C2220A128A1511
:10192E0006300A128A1108200A128A150130831213
:10193E000313A20703302202031CA62CA72C2E2C65
:10194E000230FB004530FA00A930F900F90BAD2C3E
:10195E00FA0BAD2CFB0BAD2CB42C080059308400C7
:10196E00760883138000840A77088000840A78083A
:10197E008000840A79088000840A7A08800000308A
:10198E00831203135A06031DCE2C05305906031D70
:10199E00D12CD22CD62C831603138501F12C0030BA
:1019AE005A06031DDC2C06305906031DDF2CE02CD5
:1019BE00E42C831603138601F12C00305A06031D06
:1019CE00EA2C07305906031DED2CEE2C602D8316E4
:1019DE00031387011A30FC00F830FB00FB0BF52CCB
:1019EE00FC0BF52C000003300A128A15C2220A12D3
:1019FE008A150730FC007D30FB00FB0B042DFC0B21
:101A0E00042D03300A128A15C2220A128A151530C5
:101A1E00FC00C630FB00FB0B122DFC0B122D000040
:101A2E0003300A128A15C2220A128A1502300A12CD
:101A3E008A15C2220A128A1502300A128A15C22289
:101A4E000A128A1508300A128A15C2220A128A153B
:101A5E0000300A128A15C2220A128A1506300A129C
:101A6E008A15C2220A128A150830FD007D157D08DE
:101A7E00FB0004300310FB0CFF3E031D412D7B08C1
:101A8E000F390A128A15C2220A128A157D080F39D9
:101A9E000A128A15C2220A128A1500300A128A15F3
:101AAE00C2220A128A1501300A128A15C2220A129D
:101ABE008A15080083120313B20132083E3E8400D9
:101ACE002030831380000130B20714303202031C21
:101ADE00712D722D642DAF011430A6000030A700B9
:101AEE000A128A1512230A128A1583120313210869
:101AFE00A9002008A8000A128A1563230A128A1563
:101B0E00831203132608AC002C083E3E84000530D9
:101B1E00831380000130AF0703302F02031C982D72
:101B2E00992D732DB0011430A6000030A7000A12B3
:101B3E008A1512230A128A15831203132108A9008B
:101B4E002008A8000A128A1563230A128A15831226
:101B5E0003132608AD002D083E3E84000730831384
:101B6E0080000130B00703303002031CBF2DC02DA2
:101B7E009A2DB1011330A6000030A7000A128A1563
:101B8E0012230A128A15831203132108A9002008B2
:101B9E00A8000A128A1563230A128A1583120313E8
:101BAE002608AE002E083E3E8400023083138000CD
:101BBE002E083F3E8400033080000130B107023012
:101BCE003102031CEB2DEC2DC12DB3013308523E17
:101BDE0084001430A6000030A7000A128A151223C2
:101BEE000A128A15831203132108A9002008A800DF
:101BFE000A128A1563230A128A1583120313260802
:101C0E00831380000130B30703303302031C102E00
:101C1E00112EED2D0800F200721C162E172E2C2EF2
:101C2E00831203135908840083175A1C831301303F
:101C3E00F0005C080739013E262E0310F00DFF3E22
:101C4E00031D242E70088004412E8312031359089D
:101C5E00840083175A1C83130130F0005C08073987
:101C6E00013E3B2E0310F00DFF3E031D392E700872
:101C7E00FF3A8005F21C442E452E5B2E5908840037
:101C8E0083175A1C83130130F0005C0CF100F10C29
:101C9E00710C0739013E552E0310F00DFF3E031D4A
:101CAE00532E70088004712E5908840083175A1C15
:101CBE0083130130F0005C0CF100F10C710C07394C
:101CCE00013E6B2E0310F00DFF3E031D692E7008B2
:101CDE00FF3A8005721D742E752E882E59088400C9
:101CEE0083175A1C83130130F0005D080739013E3B
:101CFE00822E0310F00DFF3E031D802E700880040F
:101D0E009B2E5908840083175A1C83130130F00050
:101D1E005D080739013E952E0310F00DFF3E031DA1
:101D2E00932E7008FF3A8005F21D9E2E9F2EB52E23
:101D3E005908840083175A1C83130130F0005D0C80
:101D4E00F100F10C710C0739013EAF2E0310F00DAE
:101D5E00FF3E031DAD2E70088004CB2E5908840063
:101D6E0083175A1C83130130F0005D0CF100F10C47
:101D7E00710C0739013EC52E0310F00DFF3E031DF9
:101D8E00C32E7008FF3A800508008316031305154D
:101D9E0085118312031385110A128A1577210A12EF
:101DAE008A15763084008312031359088000840A42
:101DBE005A088000840A5B088000840A5C08800050
:101DCE00840A5D0880000A128A15B5240A128A1543
:101DDE0000300A128A15C2220A128A1501300A121E
:101DEE008A15C2220A128A153930FB0000300A12F7
:101DFE008A1543220A128A153130FB0001300A126D
:101E0E008A1543220A128A152930FB0002300A1263
:101E1E008A1543220A128A152130FB0003300A125A
:101E2E008A1543220A128A151930FB0004300A1251
:101E3E008A1543220A128A151130FB0005300A1248
:101E4E008A1543220A128A150930FB0006300A123F
:101E5E008A1543220A128A150130FB0007300A1236
:101E6E008A1543220A128A157B30F0000030F100E9
:101E7E000A128A156A210A128A1500300A128A1568
:101E8E00C2220A128A1501300A128A15C2220A12B9
:101E9E008A150A128A15F1210A128A150A128A1552
:101EAE0061250A128A150A128A15BC230A128A158E
:101EBE00831203135E08031D652F662F812F5F08A3
:101ECE00803EBD0004300310BD0CFF3E031D6A2F83
:101EDE003D080F390A128A15C2220A128A15831278
:101EEE0003135F08803E0F390A128A15C2220A12A6
:101EFE008A15E22F5E03031D852F862FA12F5F0803
:101F0E00C03EBD0004300310BD0CFF3E031D8A2FE2
:101F1E003D080F390A128A15C2220A128A15831237
:101F2E0003135F08C03E0F390A128A15C2220A1225
:101F3E008A15E22F02305E06031DA62FA72FC22F91
:101F4E005F08943EBD0004300310BD0CFF3E031D20
:101F5E00AB2F3D080F390A128A15C2220A128A15B2
:101F6E00831203135F08943E0F390A128A15C22298
:101F7E000A128A15E22F03305E06031DC72FC82FE3
:101F8E00E22F5F08D43EBD0004300310BD0CFF3EAF
:101F9E00031DCC2F3D080F390A128A15C2220A12D0
:101FAE008A15831203135F08D43E0F390A128A155D
:101FBE00C2220A128A1500300A128A1108200A1249
:101FCE008A150A128A11E7210A128A150A128A1133
:101FDE009A200A128A150A128A155E210A128A1589
:101FEE000A128A152A240A128A15E82F0A128A1151
:021FFE000028B9
:04400E00F12FFF3F50
:00000001FF
