:100000000A128A11CD2FFF1B0D2883137F18831727
:100010000008840A0319FF0A080000308A00040857
:10002000840A8207003450346F3472346334653488
:100030006E34743461346A3465343A3420340034B4
:1000400056346F346C34743461346A3465343A3401
:10005000203400344D3469346C343A342034003464
:10006000253475342E342534753400340734003487
:100070001A342C343E343C283D28000083120313EC
:100080009F149F184428452841281E08F100831614
:1000900003131E08F0000800831203132E08FD004E
:1000A0006028831203132C08A0002D08A1007D30C6
:1000B000A2002F08A3000A128A1109270A128A1126
:1000C0007D0884000A128A110D200A128A11003A52
:1000D000031D6B286C28512883120313AC01AD015A
:1000E000080070087104031976287728A4280130C5
:1000F000F400832801300310F00DF10DFF3E031DC5
:100100007B280130F407F11F862887287A28710898
:100110007302031D8D2870087202031C9028912819
:1001200097287008F2027108031CF303F3020130F0
:100130000310F10CF00CFF3E031D98280130F4026F
:10014000031DA328A42887287308F1007208F00073
:100150000800FB01FC01CE287B087607F900770830
:10016000F8000318F80AFB1FB628F8037808FA000D
:100170007A0883120313FF00790884000A128A1197
:1001800003200A128A110A128A1198220A128A116D
:100190000130FB070318FC0A0030FC077B087607D8
:1001A000F9007708F8000318F80AFB1FD828F803AD
:1001B0007808FA007A0883120313FF007908840094
:1001C0000A128A1103200A128A11003A031DE92833
:1001D000EA28AC280800F401F5017008710403193D
:1001E000F228F32828290130F600FF2801300310F7
:1001F000F00DF10DFF3E031DF7280130F607F11F4A
:1002000002290329F62801300310F40DF50DFF3EF5
:10021000031D042971087302031D1029700872025E
:10022000031C132914291B297008F2027108031CEE
:10023000F303F302741401300310F10CF00CFF3ED1
:10024000031D1C290130F602031D27292829032933
:100250007508F1007408F00008000030FC00003060
:10026000FB000030FA000030F900701C38293929F1
:1002700050297408F907750803110318013E031982
:100280004229FA07760803110318013E0319492988
:10029000FB07770803110318013E03195029FC07D7
:1002A0000130F8000310F40DF50DF60DF70DF80B05
:1002B000522901300310F30CF20CF10CF00CFF3E4C
:1002C000031D5A297308720471047004031D6929FF
:1002D0006A2935297C08F3007B08F2007A08F100CE
:1002E0007908F000080008300A128A11BC210A12AD
:1002F0008A1100300A128A11BC210A128A111830A0
:10030000F6008030F7000A128A11A9200A128A1119
:10031000553083120313B0002130B1005308B300ED
:100320005208B2000A128A15DD270A128A110C300F
:100330000A128A11BC210A128A1100300A128A118B
:10034000BC210A128A115530F6000030F7000A125B
:100350008A11A9200A128A11023083120313C500E0
:100360000430C400B930C300C30BB429C40BB42992
:10037000C50BB429BB290800F500831203135F08DD
:1003800084008317601C83130130F3006108073970
:10039000013ECC290310F30DFF3E031DCA2973084B
:1003A000FF3A800575080A128A114F260A128A112F
:1003B000831203135F0884008317601C83130130CA
:1003C000F300610CF400F40C740C0739013EEA29C7
:1003D0000310F30DFF3E031DE82973088004063067
:1003E000F4003030F300F30BF329F40BF329000091
:1003F000831203135F0884008317601C831301308A
:10040000F300610CF400F40C740C0739013E0A2A65
:100410000310F30DFF3E031D082A7308FF3A800501
:1004200008000A128A15D0270A128A117630840031
:10043000831203135F088000840A60088000840A26
:1004400061088000840A62088000840A63088000D2
:100450000A128A11A3250A128A118316031788012A
:1004600089017F30831603138105033086008312D0
:10047000031386010130C6000030C70000300A12A5
:100480008A11BC210A128A1101300A128A11BC2178
:100490000A128A118312031306184F2A502A672A58
:1004A0000130C6070318C70A0030C707061C592ABF
:1004B0005A2A562A00304702043003194602031C08
:1004C000622A632A672A0130C6000030C7000A1278
:1004D0008A113B200A128A11710883120313D30078
:1004E0007008D200852A0A128A1100250A128A1180
:1004F0003E2A0A128A115D240A128A113E2A0A1221
:100500008A1173210A128A113E2A4708003A0319F8
:100510008A2A3E2A4608013A0319732A033A031924
:10052000792A013A03197F2A3E2A0A128A110028E1
:10053000F500831203135F0884008317601C831384
:100540000130F30061080739013EA82A0310F30DBA
:10055000FF3E031DA62A730880047508F3000430CB
:100560000310F30CFF3E031DB02A73080F390A1263
:100570008A114F260A128A11831203135F0884001E
:100580008317601C83130130F300610CF400F40C3A
:10059000740C0739013ECE2A0310F30DFF3E031DF4
:1005A000CC2A730880040D30F300F30BD52A831294
:1005B00003135F0884008317601C83130130F3006A
:1005C000610CF400F40C740C0739013EE92A0310A5
:1005D000F30DFF3E031DE72A7308FF3A80057508F7
:1005E0000F390A128A114F260A128A118312031335
:1005F0005F0884008317601C83130130F300610CD3
:10060000F400F40C740C0739013E082B0310F30DB1
:10061000FF3E031D062B730880040D30F300F30B1F
:100620000F2B831203135F0884008317601C83134E
:100630000130F300610CF400F40C740C0739013E36
:10064000232B0310F30DFF3E031D212B7308FF3AEC
:100650008005080083120313A901A31F302B312B3F
:100660003E2BA009A109A209A309A00A0319A10A06
:100670000319A20A0319A30A0130A900A71F412BDD
:10068000422B4F2BA409A509A609A709A40A0319FF
:10069000A50A0319A60A0319A70A0130A906003002
:1006A000AD000030AC000030AB000030AA002308E1
:1006B00022042104200403195E2B5F2BAA2B013096
:1006C000A8006D2B0130FD000310A00DA10DA20D9F
:1006D000A30DFD0B642B0130A807A31F702B712BFA
:1006E000622B0130FD000310AA0DAB0DAC0DAD0D5A
:1006F000FD0B732B23082702031D882B22082602DB
:10070000031D882B21082502031D882B20082402A5
:10071000031C8B2B8C2B9B2B2008A4022108031C71
:10072000210FA5022208031C220FA6022308031C86
:10073000230FA7022A1401300310A30CA20CA10C52
:10074000A00CFF3E031D9C2B0130A802031DA92B0A
:10075000AA2B712B29080319AE2BAF2BBA2BAA0990
:10076000AB09AC09AD09AA0A0319AB0A0319AC0A13
:100770000319AD0A2D08A3002C08A2002B08A10024
:100780002A08A0000800720873040319C82BC92B9B
:10079000CF2B72087304031DCE2BCF2BD62B7008E2
:1007A0000A128A15C7270A128A115C2C7208093EA0
:1007B000F40073080318013E003EF500740884003D
:1007C0008317751C83130008F600840A0008F700DD
:1007D000760877040319ED2BEE2B202C7208093EC6
:1007E000F40073080318013E003EF500740884000D
:1007F0008317751C83130008F600840A0008F700AD
:100800007208023EF80073080318013E003EF9002A
:10081000780884008317791C83130008FA00840A7F
:100820000008FB007B08803AFC007708803A7C02D5
:10083000031D1C2C76087A0203181F2C202C5C2C1C
:10084000720884008317731C83130008F400840A61
:100850000008F5007208023EF60073080318013E16
:10086000003EF700760884008317771C8313000886
:100870007407F9007508F8000318F80A801F412C66
:10088000F8037808FA007908840083177A1C831328
:10089000700880007208023EF40073080318013EDD
:1008A000003EF500740884008317751C8313013023
:1008B0008007840A0318800A080008300A128A1187
:1008C000BC210A128A1100300A128A11BC210A12B4
:1008D0008A110130F6008030F7000A128A11A9202F
:1008E0000A128A11003083120313A3000130A20000
:1008F0008F30A1009C30A0005208F0005308F10096
:10090000F201F3010030F7000F30F6004230F5003D
:100910004030F4000A128A112D210A128A1173083C
:1009200083120313A7007208A6007108A5007008BF
:10093000A4000A128A112A230A128A1183120313AD
:100940002108D1002008D0006430F0000030F10010
:100950005108F3005008F2000A128A11EB200A1223
:100960008A11710883120313CF007008CE0064301F
:10097000F0000030F1005108F3005008F2000A12B4
:100980008A1171200A128A11710883120313CD0093
:100990007008CC005530B0001E30B1004F08B300D5
:1009A0004E08B2004D08B5004C08B4000A128A1572
:1009B000DD270A128A110C300A128A11BC210A1290
:1009C0008A1100300A128A11BC210A128A1155308C
:1009D000F6000030F7000A128A11A9200A128A11C3
:1009E000023083120313C5000430C400B930C300C1
:1009F000C30BF82CC40BF82CC50BF82CFF2C0800EB
:100A000008300A128A11BC210A128A1100300A1217
:100A10008A11BC210A128A110E30F6008030F700CC
:100A20000A128A11A9200A128A11003083120313B4
:100A3000A3000030A2002730A100F630A000520829
:100A4000F0005308F100F201F3010030F70000302C
:100A5000F600C330F5005030F4000A128A112D213F
:100A60000A128A11730883120313A7007208A600E2
:100A70007108A5007008A4000A128A112A230A121C
:100A80008A11831203132108D1002008D000E83016
:100A9000F0000330F1005108F3005008F2000A1290
:100AA0008A11EB200A128A11710883120313CF00F6
:100AB0007008CE00E830F0000330F1005108F30078
:100AC0005008F2000A128A1171200A128A11710864
:100AD00083120313CD007008CC005530B0001E30D7
:100AE000B1004F08B3004E08B2004D08B5004C08E5
:100AF000B4000A128A15DD270A128A110C300A1274
:100B00008A11BC210A128A1100300A128A11BC21F2
:100B10000A128A115530F6000030F7000A128A11C5
:100B2000A9200A128A11023083120313C50004306F
:100B3000C400B930C300C30B9B2DC40B9B2DC50B48
:100B40009B2DA22D08005F3084007608831380005F
:100B5000840A77088000840A78088000840A79086B
:100B60008000840A7A088000003083120313600634
:100B7000031DBC2D05305F06031DBF2DC02DC42DE8
:100B8000831603138501DF2D00306006031DCA2D77
:100B900006305F06031DCD2DCE2DD22D83160313F7
:100BA0008601DF2D00306006031DD82D07305F065B
:100BB000031DDB2DDC2D4E2E8316031387011A3007
:100BC000FC00F830FB00FB0BE32DFC0BE32D0000D9
:100BD00003300A128A11BC210A128A110730FC0064
:100BE0007D30FB00FB0BF22DFC0BF22D03300A12C3
:100BF0008A11BC210A128A111530FC00C630FB0094
:100C0000FB0B002EFC0B002E000003300A128A1191
:100C1000BC210A128A1102300A128A11BC210A125E
:100C20008A1102300A128A11BC210A128A11083074
:100C30000A128A11BC210A128A1100300A128A1182
:100C4000BC210A128A1106300A128A11BC210A122A
:100C50008A110830FD007D157D08FB00043003106B
:100C6000FB0CFF3E031D2F2E7B080F390A128A1141
:100C7000BC210A128A117D080F390A128A11BC217F
:100C80000A128A1100300A128A11BC210A128A1132
:100C900001300A128A11BC210A128A110800F200DE
:100CA000721C532E542E692E831203135F08840086
:100CB0008317601C83130130F00062080739013E7E
:100CC000632E0310F00DFF3E031D612E700880049B
:100CD0007E2E831203135F0884008317601C831326
:100CE0000130F00062080739013E782E0310F00D44
:100CF000FF3E031D762E7008FF3A8005F21C812E00
:100D0000822E982E5F0884008317601C83130130A5
:100D1000F000620CF100F10C710C0739013E922ECB
:100D20000310F00DFF3E031D902E70088004AE2EC0
:100D30005F0884008317601C83130130F000620C8D
:100D4000F100F10C710C0739013EA82E0310F00DD3
:100D5000FF3E031DA62E7008FF3A8005721DB12EBE
:100D6000B22EC52E5F0884008317601C83130130E8
:100D7000F00063080739013EBF2E0310F00DFF3E5F
:100D8000031DBD2E70088004D82E5F0884008317D1
:100D9000601C83130130F00063080739013ED22E36
:100DA0000310F00DFF3E031DD02E7008FF3A8005A2
:100DB000F21DDB2EDC2EF22E5F0884008317601CF0
:100DC00083130130F000630CF100F10C710C073952
:100DD000013EEC2E0310F00DFF3E031DEA2E7008BD
:100DE0008004082F5F0884008317601C8313013080
:100DF000F000630CF100F10C710C0739013E022F79
:100E00000310F00DFF3E031D002F7008FF3A800510
:100E100008008312031322088400000884000A12C9
:100E20008A110D200A128A11253A031D182F192F35
:100E3000B32F2208840001308007C801C9010030A7
:100E4000D400FF30CA00FF30CB0022088400000825
:100E5000AA002A0884000A128A110D200A128A1197
:100E6000753A031D342F352FAC2F230884008313CC
:100E70000008FF00023080077F0884000008A600F9
:100E8000840A0008A700220884002A08013E800086
:100E9000A12F2030AB000130AB022B08A03E840014
:100EA0000A30F0000030F1002708F3002608F200B5
:100EB0000A128A1171200A128A117008303E8313B7
:100EC00080000A30F0000030F1008312031327087D
:100ED000F3002608F2000A128A11EB200A128A1186
:100EE000710883120313A7007008A60026082704C0
:100EF00003197B2F7C2F9A2F2B08031D802F812F06
:100F00004B2F9A2F2B08A03E840083130008A400C7
:100F1000A5012408F0002508F1002008F2002108AE
:100F2000F3000A128A11C3230A128A1101308312B4
:100F30000313AB0720302B06031D9F2FA02F822FFA
:100F4000CC2F2A0884000A128A110D200A128A1155
:100F5000753A0319492FAC2F83120313220884001A
:100F600001308007CC2F22088400000884000A1278
:100F70008A110D200A128A11A400A5012408F0008C
:100F80002508F1002008F2002108F3000A128A1156
:100F9000C3230A128A11AC2F08000A128A113620C4
:100FA0000A128A11DF000A128A1137200A128A11E6
:100FB000E0000A128A1138200A128A11E1000A128E
:100FC0008A1139200A128A11E2000A128A113A2083
:100FD0000A128A11E3008313A0308400C0300A1281
:100FE0008A15C8270A128A11483084005F300A1215
:100FF0008A15C8270A128A1183010A128A11112A36
:101F8E00080064008001840A040603190034040664
:101F9E00C92F013083160317880081308312031373
:101FAE009F008030831603139F0008003230831287
:101FBE000313B7003008B8000030B900BA01BB01F6
:101FCE00C101C2013830AC000030AD003108AE00A6
:101FDE003730AF000A128A114C200A128A1583126A
:101FEE0003133A083007B6003608840083138001C5
:021FFE000800D9
:04400E00F12FFF3F50
:00000001FF
