:060000000A128A11EE2F26
:100E3E003F3406345B344F3466346D347D340734BE
:100E4E007F346F347E088A007F0882000A128A116E
:100E5E0029270A128A118000840A04087D060319C4
:100E6E000034FF0A0319FE0A2D2F700871040319AE
:100E7E00412F422F6F2F0130F4004E2F01300310FF
:100E8E00F00DF10DFF3E031D462F0130F407F11F4B
:100E9E00512F522F452F71087302031D582F7008C2
:100EAE007202031C5B2F5C2F622F7008F202710816
:100EBE00031CF303F30201300310F10CF00CFF3EA0
:100ECE00031D632F0130F402031D6E2F6F2F522F5F
:100EDE007308F1007208F0000800831603178901E9
:100EEE007F30831603138105FF308600880183123D
:100EFE0003138801FB01FC01031083120313061C6C
:100F0E000314003003180130F500F6017508F700E0
:100F1E007608F8000310861C031400300318013005
:100F2E00F500F6017508F9007608FA0077037804E3
:100F3E00031DA22FA32FAD2F0130FB070318FC0AB0
:100F4E000030FC07061CAC2FAD2FA92F79037A04B5
:100F5E00031DB22FB32FC82F7B087C040319B82FA3
:100F6E00B92FC02F0130FB020030031CFC03FC0222
:100F7E00C42F0930FB000030FC00861CC72FC82F81
:100F8E00C42F0A30F0000030F1007C08F3007B081B
:100F9E00F2000A128A113C270A128A117108FC000B
:100FAE007008FB007B08203E840083130008831228
:100FBE00031388001A30F600F830F500F50BE52F14
:100FCE00F60BE52F0000832F0A128A1100288313D7
:100FDE002A30FD000730FE001F30FF002030840055
:100FEE000A128A112D270A128A1183010A128A11F6
:020FFE00742F4E
:04400E00F12FFF3F50
:00000001FF
