:060000000A128A11EE2F26
:100CA6007E088A007F0882000A128A1153260A12D9
:100CB6008A118000840A04087D0603190034FF0A9D
:100CC6000319FE0A572E81348134C3344234423428
:100CD600663424341834F0348834843484348434C8
:100CE60084348834F0340034003407347D34873457
:100CF6007D34073400343E342A343E3414341434FC
:100D06001434143408340034E034BE34E134BE34D0
:100D1600E03400340034103428342834283428349D
:100D26007C3454347C3483160313860188013230B4
:100D3600F7000030F800C42EF10108307102031CE0
:100D4600A52EA62EA72EC42E0130F000710AAD2EB8
:100D56000310F00DFF3E031DAB2E70088312031324
:100D660086007108283E8400831300098800C73076
:100D7600F000BD2EF00BBC2EC02EC12E0130F107A7
:100D8600A02E0130F7020030031CF803F802770AA0
:100D9600031DD12E780A031DD12ED22E9F2E32305E
:100DA600F7000030F800FC2EF20108307202031C36
:100DB600DD2EDE2EDF2EFC2E0130F000720AE52E2F
:100DC6000310F00DFF3E031DE32E7008831203137C
:100DD60086007208203E8400831300098800C7300D
:100DE600F000F52EF00BF42EF82EF92E0130F20756
:100DF600D82E0130F7020030031CF803F802770AF8
:100E0600031D092F780A031D092F0A2FD72E32300A
:100E1600F7000030F800342FF30108307302031C8A
:100E2600152F162F172F342F0130F000730A1D2FA0
:100E36000310F00DFF3E031D1B2F700883120313D2
:100E460086007308483E8400831300098800C73073
:100E5600F0002D2FF00B2C2F302F312F0130F30700
:100E6600102F0130F7020030031CF803F802770A4E
:100E7600031D412F780A031D412F422F0F2F3230B9
:100E8600F7000030F8006C2FF40108307402031CE0
:100E96004D2F4E2F4F2F6C2F0130F000740A552F17
:100EA6000310F00DFF3E031D532F7008831203132A
:100EB60086007408403E8400831300098800C7300A
:100EC600F000652FF00B642F682F692F0130F407AF
:100ED600482F0130F7020030031CF803F802770AA6
:100EE600031D792F780A031D792F7A2F472F323069
:100EF600F7000030F800A42FF50108307502031C36
:100F0600852F862F872FA42F0130F000750A8D2F8D
:100F16000310F00DFF3E031D8B2F70088312031381
:100F260086007508383E8400831300098800C730A0
:100F3600F0009D2FF00B9C2FA02FA12F0130F5075D
:100F4600802F0130F7020030031CF803F802770AFD
:100F5600031DB12F780A031DB12FB22F7F2F323018
:100F6600F7000030F800DC2FF60108307602031C8B
:100F7600BD2FBE2FBF2FDC2F0130F000760AC52F04
:100F86000310F00DFF3E031DC32F700883120313D9
:100F960086007608303E8400831300098800C73037
:100FA600F000D52FF00BD42FD82FD92F0130F6070C
:100FB600B82F0130F7020030031CF803F802770A55
:100FC600031DE92F780A031DE92FEA2FB72F9A2E62
:100FD6000A128A11002883135030FD000630FE00E5
:100FE6006630FF00203084000A128A1157260A1242
:0A0FF6008A1183010A128A11962E57
:04400E00F12FFF3F50
:00000001FF
