:100000000A128A11D02FFF1B0D2883137F18831724
:100010000008840A0319FF0A080000308A00040857
:10002000840A8207003456346F346C34743461347B
:100030006A3465343A3420340034253475342E342F
:0600400025347534003484
:10027E000800073400341A342C343E3464008001F4
:10028E00840A040603190034040646290130831635
:10029E00031788008130831203139F00803083166A
:1002AE0003139F0008005B295C29000083120313CF
:1002BE009F149F186329642960291E08F100831674
:1002CE0003131E08F0000800323083120313B70028
:1002DE003008B8000030B900BA01BB01C101C2013B
:1002EE003830AC000030AD003108AE003730AF0012
:1002FE000A128A118E210A128A11831203133A08E6
:10030E003007B6003608840083138001080083127C
:10031E0003132E08FD00A229831203132C08A0003C
:10032E002D08A1007D30A2002F08A3000A128A1109
:10033E0035260A128A117D0884000A128A110D20B0
:10034E000A128A11003A031DAD29AE299329831290
:10035E000313AC01AD010800700871040319B8292C
:10036E00B929E6290130F400C52901300310F00D3A
:10037E00F10DFF3E031DBD290130F407F11FC82901
:10038E00C929BC2971087302031DCF297008720296
:10039E00031CD229D329D9297008F2027108031C33
:1003AE00F303F30201300310F10CF00CFF3E031DBA
:1003BE00DA290130F402031DE529E629C92973085B
:1003CE00F1007208F0000800FB01FC01102A7B0806
:1003DE007607F9007708F8000318F80AFB1FF829CA
:1003EE00F8037808FA007A0883120313FF007908DD
:1003FE0084000A128A1103200A128A110A128A1123
:10040E000A230A128A110130FB070318FC0A003076
:10041E00FC077B087607F9007708F8000318F80A3E
:10042E00FB1F1A2AF8037808FA007A0883120313BE
:10043E00FF00790884000A128A1103200A128A1119
:10044E00003A031D2B2A2C2AEE290800F401F5018F
:10045E00700871040319342A352A6A2A0130F6000D
:10046E00412A01300310F00DF10DFF3E031D392A14
:10047E000130F607F11F442A452A382A01300310AD
:10048E00F40DF50DFF3E031D462A71087302031D80
:10049E00522A70087202031C552A562A5D2A7008C9
:1004AE00F2027108031CF303F302741401300310FB
:1004BE00F10CF00CFF3E031D5E2A0130F602031D07
:1004CE00692A6A2A452A7508F1007408F0000800A6
:1004DE000030FC000030FB000030FA000030F90064
:1004EE00701C7A2A7B2A922A7408F9077508031160
:1004FE000318013E0319842AFA077608031103181C
:10050E00013E03198B2AFB07770803110318013EDE
:10051E000319922AFC070130F8000310F40DF50DB3
:10052E00F60DF70DF80B942A01300310F30CF20CB4
:10053E00F10CF00CFF3E031D9C2A7308720471042B
:10054E007004031DAB2AAC2A772A7C08F3007B08C3
:10055E00F2007A08F1007908F0000800F500831225
:10056E0003135D08840083175E1C83130130F300B0
:10057E005F080739013EC52A0310F30DFF3E031D28
:10058E00C32A7308FF3A800575080A128A117B2563
:10059E000A128A11831203135D08840083175E1CEE
:1005AE0083130130F3005F0CF400F40C740C073964
:1005BE00013EE32A0310F30DFF3E031DE12A7308EB
:1005CE0080040630F4003030F300F30BEC2AF40B09
:1005DE00EC2A0000831203135D08840083175E1C4F
:1005EE0083130130F3005F0CF400F40C740C073924
:1005FE00013E032B0310F30DFF3E031D012B730869
:10060E00FF3A80050800F500831203135D0884008D
:10061E0083175E1C83130130F3005F080739013E18
:10062E001A2B0310F30DFF3E031D182B73088004C5
:10063E007508F30004300310F30CFF3E031D222B4C
:10064E0073080F390A128A117B250A128A11831236
:10065E0003135D08840083175E1C83130130F300BF
:10066E005F0CF400F40C740C0739013E402B0310A0
:10067E00F30DFF3E031D3E2B730880040D30F30077
:10068E00F30B472B831203135D08840083175E1C44
:10069E0083130130F3005F0CF400F40C740C073973
:1006AE00013E5B2B0310F30DFF3E031D592B730808
:1006BE00FF3A800575080F390A128A117B250A1236
:1006CE008A11831203135D08840083175E1C831343
:1006DE000130F3005F0CF400F40C740C0739013E8A
:1006EE007A2B0310F30DFF3E031D782B7308800445
:1006FE000D30F300F30B812B831203135D0884007E
:10070E0083175E1C83130130F3005F0CF400F40CAE
:10071E00740C0739013E952B0310F30DFF3E031D9C
:10072E00932B7308FF3A8005080083120313A90167
:10073E00A31FA22BA32BB02BA009A109A209A309C9
:10074E00A00A0319A10A0319A20A0319A30A013068
:10075E00A900A71FB32BB42BC12BA409A509A60969
:10076E00A709A40A0319A50A0319A60A0319A70AB9
:10077E000130A9060030AD000030AC000030AB00F7
:10078E000030AA0023082204210420040319D02BD0
:10079E00D12B1C2C0130A800DF2B0130FD000310E3
:1007AE00A00DA10DA20DA30DFD0BD62B0130A80798
:1007BE00A31FE22BE32BD42B0130FD000310AA0D57
:1007CE00AB0DAC0DAD0DFD0BE52B23082702031D64
:1007DE00FA2B22082602031DFA2B21082502031DDF
:1007EE00FA2B20082402031CFD2BFE2B0D2C2008B7
:1007FE00A4022108031C210FA5022208031C220FAC
:10080E00A6022308031C230FA7022A14013003108B
:10081E00A30CA20CA10CA00CFF3E031D0E2C01304C
:10082E00A802031D1B2C1C2CE32B29080319202CBA
:10083E00212C2C2CAA09AB09AC09AD09AA0A031963
:10084E00AB0A0319AC0A0319AD0A2D08A3002C0834
:10085E00A2002B08A1002A08A00008007208730449
:10086E0003193A2C3B2C412C72087304031D402CA7
:10087E00412C482C70080A128A113F210A128A1143
:10088E00CE2C7208093EF40073080318013E003E98
:10089E00F500740884008317751C83130008F60096
:1008AE00840A0008F7007608770403195F2C602C81
:1008BE00922C7208093EF40073080318013E003EA4
:1008CE00F500740884008317751C83130008F60066
:1008DE00840A0008F7007208023EF8007308031835
:1008EE00013E003EF900780884008317791C8313BB
:1008FE000008FA00840A0008FB007B08803AFC001E
:10090E007708803A7C02031D8E2C76087A02031833
:10091E00912C922CCE2C720884008317731C831397
:10092E000008F400840A0008F5007208023EF60082
:10093E0073080318013E003EF70076088400831703
:10094E00771C831300087407F9007508F800031864
:10095E00F80A801FB32CF8037808FA00790884008F
:10096E0083177A1C8313700880007208023EF4000D
:10097E0073080318013E003EF500740884008317C7
:10098E00751C831301308007840A0318800A08003F
:10099E005D308400760883138000840A7708800017
:1009AE00840A78088000840A79088000840A7A080C
:1009BE0080000030831203135E06031DE82C053001
:1009CE005D06031DEB2CEC2CF02C83160313850116
:1009DE000B2D00305E06031DF62C06305D06031D42
:1009EE00F92CFA2CFE2C8316031386010B2D0030E6
:1009FE005E06031D042D07305D06031D072D082D11
:100A0E007A2D8316031387011A30FC00F830FB0091
:100A1E00FB0B0F2DFC0B0F2D000003300A128A1159
:100A2E00B5220A128A110730FC007D30FB00FB0B49
:100A3E001E2DFC0B1E2D03300A128A11B5220A122E
:100A4E008A111530FC00C630FB00FB0B2C2DFC0B65
:100A5E002C2D000003300A128A11B5220A128A11B7
:100A6E0002300A128A11B5220A128A1102300A12B3
:100A7E008A11B5220A128A1108300A128A11B52279
:100A8E000A128A1100300A128A11B5220A128A112C
:100A9E0006300A128A11B5220A128A110830FD0098
:100AAE007D157D08FB0004300310FB0CFF3E031D7B
:100ABE005B2D7B080F390A128A11B5220A128A1190
:100ACE007D080F390A128A11B5220A128A110030D6
:100ADE000A128A11B5220A128A1101300A128A11DB
:100AEE00B5220A128A110800F200721C7F2D802D89
:100AFE00952D831203135D08840083175E1C8313E8
:100B0E000130F00060080739013E8F2D0310F00D03
:100B1E00FF3E031D8D2D70088004AA2D8312031332
:100B2E005D08840083175E1C83130130F00060089B
:100B3E000739013EA42D0310F00DFF3E031DA22D1B
:100B4E007008FF3A8005F21CAD2DAE2DC42D5D0848
:100B5E00840083175E1C83130130F000600CF100DB
:100B6E00F10C710C0739013EBE2D0310F00DFF3E46
:100B7E00031DBC2D70088004DA2D5D0884008317D8
:100B8E005E1C83130130F000600CF100F10C710C4F
:100B9E000739013ED42D0310F00DFF3E031DD22D5B
:100BAE007008FF3A8005721DDD2DDE2DF12D5D08DA
:100BBE00840083175E1C83130130F000610807392F
:100BCE00013EEB2D0310F00DFF3E031DE92D7008C5
:100BDE008004042E5D08840083175E1C831301308D
:100BEE00F00061080739013EFE2D0310F00DFF3EA7
:100BFE00031DFC2D7008FF3A8005F21D072E082EEE
:100C0E001E2E5D08840083175E1C83130130F000D6
:100C1E00610CF100F10C710C0739013E182E031016
:100C2E00F00DFF3E031D162E70088004342E5D0855
:100C3E00840083175E1C83130130F000610CF100F9
:100C4E00F10C710C0739013E2E2E0310F00DFF3EF4
:100C5E00031D2C2E7008FF3A800508008312031323
:100C6E0022088400000884000A128A110D200A123C
:100C7E008A11253A031D442E452EDF2E22088400AC
:100C8E0001308007D801D9010030DC00FF30DA00D6
:100C9E00FF30DB00220884000008AA002A08840026
:100CAE000A128A110D200A128A11753A031D602E3E
:100CBE00612ED82E2308840083130008FF00023013
:100CCE0080077F0884000008A600840A0008A70099
:100CDE00220884002A08013E8000CD2E2030AB0071
:100CEE000130AB022B08A03E84000A30F000003029
:100CFE00F1002708F3002608F2000A128A11B32128
:100D0E000A128A117008303E831380000A30F000F8
:100D1E000030F100831203132708F3002608F200B7
:100D2E000A128A112D220A128A11710883120313D4
:100D3E00A7007008A600260827040319A72EA82EC0
:100D4E00C62E2B08031DAC2EAD2E772EC62E2B08CD
:100D5E00A03E840083130008A400A5012408F0001F
:100D6E002508F1002008F2002108F3000A128A116A
:100D7E0035240A128A11013083120313AB07203077
:100D8E002B06031DCB2ECC2EAE2EF82E2A08840059
:100D9E000A128A110D200A128A11753A0319752E3C
:100DAE00D82E831203132208840001308007F82EF8
:100DBE0022088400000884000A128A110D200A12EB
:100DCE008A11A400A5012408F0002508F1002008CE
:100DDE00F2002108F3000A128A1135240A128A1130
:100DEE00D82E08000A128A114D210A128A11763065
:100DFE008400831203135D088000840A5E0880005D
:100E0E00840A5F088000840A60088000840A6108F2
:100E1E0080000A128A11CF240A128A1100300A1297
:100E2E008A11B5220A128A1101300A128A11B522CC
:100E3E000A128A1108300A128A11B5220A128A1170
:100E4E0000300A128A11B5220A128A110130F600F8
:100E5E008030F7000A128A11EB210A128A1108302B
:100E6E000A128A11B5220A128A1109300A128A113F
:100E7E00B5220A128A110A128A115A210A128A11ED
:100E8E00710883120313D1007008D0000030A30044
:100E9E000030A2002730A100F630A0005008F0006C
:100EAE005108F100F201F3010030F7000030F600B6
:100EBE00C330F5005030F4000A128A116F220A1264
:100ECE008A11730883120313A7007208A600710813
:100EDE00A5007008A4000A128A119C230A128A1116
:100EEE00831203132108D7002008D600E830F00043
:100EFE000330F1005708F3005608F2000A128A1167
:100F0E002D220A128A11710883120313D30070085E
:100F1E00D200E830F0000330F1005708F300560815
:100F2E00F2000A128A11B3210A128A117108831271
:100F3E000313D5007008D4004630B0000B30B1005A
:100F4E005308B3005208B2005508B5005408B40057
:100F5E000A128A116B210A128A114630F6000030ED
:100F6E00F7000A128A11EB210A128A11023083123B
:100F7E000313C5000430C400B930C300C30BC52F22
:100F8E00C40BC52FC50BC52FCC2F152F0A128A11D6
:100F9E0000280A128A1140210A128A11DD000A1253
:100FAE008A1141210A128A11DE000A128A11422187
:100FBE000A128A11DF000A128A1143210A128A11BB
:100FCE00E0000A128A1144210A128A11E1008313E9
:100FDE00A0308400C0300A128A1145210A128A11EB
:100FEE00D801D901DA01DB01DC0183010A128A1171
:020FFE00F92ECA
:04400E00F12FFF3F50
:00000001FF
