:060000000A128A11FC2F18
:100E2E00F00070088312031395000800013083163A
:100E3E00031788008130831203139F0080308316BE
:100E4E0003139F000800831203139F149F18302F63
:100E5E00312F2D2F1E08F100831603131E08F000EC
:100E6E000800831603130F140F088F3930388F00C4
:100E7E00831203131708F0390C3897003F3097058B
:100E8E000330920412159B30831603139200080050
:100E9E00F401F501701C542F552F5B2F7208F407C7
:100EAE000318F50A7308F50701300310F20DF30D60
:100EBE00FF3E031D5C2F01300310F10CF00CFF3EC2
:100ECE00031D632F70087104031D6E2F6F2F512F9A
:100EDE007508F1007408F0000800FA01FB017608AD
:100EEE00770403197B2F7C2FB12F0130FC00882F44
:100EFE0001300310F60DF70DFF3E031D802F01305C
:100F0E00FC07F71F8B2F8C2F7F2F01300310FA0D4C
:100F1E00FB0DFF3E031D8D2F77087902031D992FC0
:100F2E0076087802031C9C2F9D2FA42F7608F802BA
:100F3E007708031CF903F9027A1401300310F70C39
:100F4E00F60CFF3E031DA52F0130FC02031DB02F32
:100F5E00B12F8C2F7B08F7007A08F6000800831655
:100F6E00031307110A128A1138270A128A110A125C
:100F7E008A111D270A128A110A128A112A270A12A9
:100F8E008A11710883120313A1007008A000FF30AC
:100F9E00F6000330F7002108F1002008F0001130B0
:100FAE00F2000030F3000A128A114F270A128A113A
:100FBE007108F9007008F8000A128A1174270A12D3
:100FCE008A117608033E83120313A20077080318D2
:100FDE00013E003EA30022080A128A1117270A12A8
:100FEE008A11C32F0A128A11002883010A128A114C
:020FFE00B62F0C
:04400E00F12FFF3F50
:00000001FF
