:060000000A128A110C280F
:10000800FE00030EF0000A08F1000A128A11362FCA
:100018000A128A110F28831603130A128A156D26ED
:100028000A128A11DB000A128A156E260A128A1130
:10003800DC000A128A156F260A128A11DD000A12DC
:100048008A1570260A128A11DE000A128A1571268C
:100058000A128A11DF008313A0308400C3300A1209
:100068008A1572260A128A11623084006F300A12C9
:100078008A1572260A128A11FA01FB0183010A12F3
:100088008A1146280A128A1585260A128A110A1226
:100098008A157A260A128A110A128A1592260A12D3
:1000A8008A118316031308108312031308102030D3
:1000B8008400831603135B0883138000840A5C089A
:1000C8008000840A5D088000840A5E088000840A33
:1000D8005F0880000A128A1142230A128A1100302E
:1000E8000A128A118E260A128A1101300A128A11FE
:1000F8008E260A128A1108300A128A118E260A12CE
:100108008A1100300A128A118E260A128A110130C9
:10011800F8008030F9000A128A15BA270A128A11E3
:100128000C300A128A118E260A128A1100300A121D
:100138008A118E260A128A110B30F8008030F900D5
:100148000A128A15BA270A128A110C300A128A1161
:100158008E260A128A1109300A128A118E260A126C
:100168008A112730F8008030F9000A128A15BA2758
:100178000A128A1183160313220C83120313031C19
:100188000810031808140C300A128A118E260A1255
:100198008A1109300A128A118E260A128A113C30F5
:1001A800F2000030F300831603132108F50020083D
:1001B800F4000A128A1578270A128A11730883161E
:1001C8000313D6007208D5003C30F2000030F3006B
:1001D8002108F5002008F4000A128A1540270A129F
:1001E8008A11730883160313D8007208D700693080
:1001F80083120313CF001530D0008316031356085B
:1002080083120313D20083160313550883120313B2
:10021800D10083160313580883120313D4008316DE
:100228000313570883120313D3000A128A15D4261E
:100238000A128A116930F8000A128A15F7260A127A
:100248008A110A128A15A0260A128A1173088316BF
:100258000313D0007208CF00003083120313A800E4
:100268000030A7002730A600F630A5008316031338
:100278004F08F2005008F300F401F5010030F900CE
:100288000030F800C330F7005030F6000A128A1127
:1002980089270A128A11750883120313AC0074089F
:1002A800AB007308AA007208A9000A128A118E24EA
:1002B8000A128A1183120313260883160313DA001D
:1002C80083120313250883160313D900E830F200BC
:1002D8000330F3005A08F5005908F4000A128A1589
:1002E80078270A128A11730883160313D20072083A
:1002F800D100E830F2000330F3005A08F50059083D
:10030800F4000A128A1540270A128A117308831604
:100318000313D4007208D300C53083120313CF002F
:100328001F30D00083160313520883120313D20020
:1003380083160313510883120313D1008316031382
:10034800540883120313D40083160313530883122B
:100358000313D3000A128A15D4260A128A11083008
:100368000A128A118E260A128A1109300A128A1173
:100378008E260A128A11C530F8000030F9000A12D8
:100388008A15BA270A128A11823083160313C40009
:10039800DD30C300C30BCE29C40BCE29BE280A12F8
:1003A8008A110C28F400741CDA29DB29F029831639
:1003B80003135B08840083175C1C83130130F2006D
:1003C8005E080739013EEA290310F20DFF3E031DBE
:1003D800E82972088004052A831603135B08840041
:1003E80083175C1C83130130F2005E080739013E55
:1003F800FF290310F20DFF3E031DFD297208FF3A85
:100408008005F41C082A092A1F2A5B088400831720
:100418005C1C83130130F2005E0CF300F30C730CC8
:100428000739013E192A0310F20DFF3E031D172A52
:1004380072088004352A5B08840083175C1C8313C8
:100448000130F2005E0CF300F30C730C0739013E27
:100458002F2A0310F20DFF3E031D2D2A7208FF3AC2
:100468008005741D382A392A4C2A5B0884008317B2
:100478005C1C83130130F2005F080739013E462AED
:100488000310F20DFF3E031D442A720880045F2A00
:100498005B08840083175C1C83130130F2005F083B
:1004A8000739013E592A0310F20DFF3E031D572A52
:1004B8007208FF3A8005F41D622A632A792A5B08CC
:1004C800840083175C1C83130130F2005F0CF30077
:1004D800F30C730C0739013E732A0310F20DFF3E2B
:1004E800031D712A720880048F2A5B088400831711
:1004F8005C1C83130130F2005F0CF300F30C730CE7
:100508000739013E892A0310F20DFF3E031D872A91
:100518007208FF3A8005080083120313400884001C
:100528008313000884000A128A150A200A128A1105
:10053800253A031DA02AA12A282B4008840001304F
:100548008007E201E3010030E800FF30E400FF30FB
:10055800E500C801C52AE814400884000130800776
:10056800C52A0130C800C52A400884000008840054
:100578000A128A150A200A128A11303A0319AF2A78
:10058800B52A48080319C92ACA2AB82A4008F8000F
:100598004108F9000A128A1137260A128A117908C5
:1005A80083120313E3007808E200E31FDC2ADD2A44
:1005B800E32A6814E209E309E20A0319E30A400896
:1005C800840083130008C900490884000A128A15A8
:1005D8000A200A128A11753A031DF32AF42A202BDD
:1005E800410884000008FF00023080077F0884006B
:1005F8000008C400840A0008C500400884004908AF
:10060800013E8000152B3E08B5003F08B60045089E
:10061800B8004408B7000A128A11B9250A128A11CB
:10062800412B490884000A128A150A200A128A11E5
:10063800753A0319072B202B8312031340088400F3
:10064800013083138007412B400884000008840090
:100658000A128A150A200A128A11C200C301420826
:10066800F2004308F3003E08F4003F08F5000A12C0
:100678008A11EE230A128A11202B0800DB3084002D
:1006880083120313200883138000840A2108800042
:10069800840A22088000840A23088000840A240827
:1006A80080000030831603135C06031D5D2B0530A4
:1006B8005B06031D602B612B632B85017A2B0030B1
:1006C8005C06031D692B06305B06031D6C2B6D2B26
:1006D8006F2B86017A2B00305C06031D752B0730C3
:1006E8005B06031D782B792BED2B87011A30F90057
:1006F800F830F800F80B7E2BF90B7E2B0000033046
:100708000A128A118E260A128A110730F9007D30E2
:10071800F800F80B8D2BF90B8D2B03300A128A1178
:100728008E260A128A111530F900C630F800F80B27
:100738009B2BF90B9B2B000003300A128A118E2683
:100748000A128A1102300A128A118E260A128A1196
:1007580002300A128A118E260A128A1108300A12E9
:100768008A118E260A128A1100300A128A118E26E0
:100778000A128A1106300A128A118E260A128A1162
:10078800083083120313A50025152508F800043046
:100798000310F80CFF3E031DCC2B78080F390A1202
:1007A8008A118E260A128A118312031325080F391B
:1007B8000A128A118E260A128A1100300A128A1128
:1007C8008E260A128A1101300A128A118E260A12FE
:1007D8008A110800740875040319F32BF42BFA2BFB
:1007E80074087504031DF92BFA2B012C72080A12E0
:1007F8008A11FC270A128A118D2C7408093E83126B
:100808000313A00075080318013E003EA10020084C
:1008180084008317211C83130008A200840A00089F
:10082800A3002208230403191A2C1B2C4D2C74082E
:10083800093EA00075080318013E003EA1002008EB
:1008480084008317211C83130008A200840A00086F
:10085800A3007408023EA40075080318013E003E78
:10086800A500240884008317251C83130008A6000C
:10087800840A0008A7002708803AA8002308803ABD
:100888002802031D492C2208260203184C2C4D2C43
:100898008D2C740884008317751C83130008831239
:1008A8000313A000840A0008A1007408023EA200F5
:1008B80075080318013E003EA30022088400831730
:1008C800231C831300082007A5002108A40003188F
:1008D800A40A801F702CA403831203132408A60003
:1008E800250884008317261C831372088000740867
:1008F800023EA00075080318013E003EA100200832
:1009080084008317211C831301308007840A03188D
:10091800800A080083120313AF01A81F942C952C9A
:10092800A22CA509A609A709A809A50A0319A60AB8
:100938000319A70A0319A80A0130AF00AC1FA52C98
:10094800A62CB32CA909AA09AB09AC09A90A031951
:10095800AA0A0319AB0A0319AC0A0130AF06003022
:10096800B3000030B2000030B1000030B0002808F9
:100978002704260425040319C22CC32C0E2D01308C
:10098800AE00D12C0130AD000310A50DA60DA70DAA
:10099800A80DAD0BC82C0130AE07A81FD42CD52C40
:1009A800C62C0130AD000310B00DB10DB20DB30D62
:1009B800AD0BD72C28082C02031DEC2C27082B0282
:1009C800031DEC2C26082A02031DEC2C25082902FD
:1009D800031CEF2CF02CFF2C2508A9022608031C69
:1009E800260FAA022708031C270FAB022808031C9E
:1009F800280FAC02301401300310A80CA70CA60C69
:100A0800A50CFF3E031D002D0130AE02031D0D2D68
:100A18000E2DD52C2F080319122D132D1E2DB009BC
:100A2800B109B209B309B00A0319B10A0319B20A24
:100A38000319B30A3308A8003208A7003108A60032
:100A48003008A5000800F700831603135B0884002C
:100A580083175C1C83130130F5005D080739013EDC
:100A6800372D0310F50DFF3E031D352D7508800445
:100A78007708F50004300310F50CFF3E031D3F2DE9
:100A880075080F390A128A11D6210A128A1183169B
:100A980003135B08840083175C1C83130130F50083
:100AA8005D0CF600F60C760C0739013E5D2D03103F
:100AB800F50DFF3E031D5B2D750880040D30F50014
:100AC800F50B642D831603135B08840083175C1CE5
:100AD80083130130F5005D0CF600F60C760C07392F
:100AE800013E782D0310F50DFF3E031D762D750888
:100AF800FF3A800577080F390A128A11D6210A129F
:100B08008A11831603135B08840083175C1C831304
:100B18000130F5005D0CF600F60C760C0739013E45
:100B2800972D0310F50DFF3E031D952D75088004C4
:100B38000D30F500F50B9E2D831603135B0884001A
:100B480083175C1C83130130F5005D0CF600F60C6E
:100B5800760C0739013EB22D0310F50DFF3E031D3B
:100B6800B02D7508FF3A8005080001308312031381
:100B7800B9006308BB006208BA001F30BC0000302F
:100B8800BD0083160313C201FF2DFF30BC070318F5
:100B9800BD0AFF30BD073C08A33E84000A30F200BE
:100BA8000030F3003808F5003708F4000A128A15F7
:100BB80040270A128A117208303E8313800083127C
:100BC8000313B901FF30BA070318BB0AFF30BB078C
:100BD8000A30F2000030F3003808F5003708F40056
:100BE8000A128A1578270A128A11730883120313C6
:100BF800B8007208B70083123C083D040319052E9B
:100C0800062E242E37083804031D0B2E0C2EC92D52
:100C18003908031D102E112EC92D3B08803AFF00FC
:100C280080307F02031D1A2E01303A02031C1D2E4C
:100C38001E2E242E83120313E818232E242EC92DCA
:100C4800831203133508AE003608AF003C08A33EF4
:100C5800B0003B08B2003A08B1000A128A11E32634
:100C68000A128A11080083120313A101A20178084D
:100C780084008313000884000A128A150A200A12C5
:100C88008A112A3A031D492E4A2E782E78088400A4
:100C980001308007790884000008FF0002308007CF
:100CA8007F0884000008A100840A0008A200892E99
:100CB8002208F3002108F2000A30F4000030F500A1
:100CC8000A128A151B270A128A1183120313200895
:100CD8007207A1000030031801307307A2007808DA
:100CE800840001308313800778088400000884009A
:100CF8000A128A150A200A128A11D03EA0000A3068
:100D08002002031C882E892E5C2E2208F900210857
:100D1800F8000800F700831603135B0884008317A4
:100D28005C1C83130130F5005D080739013E9E2ED7
:100D38000310F50DFF3E031D9C2E7508FF3A800534
:100D480077080A128A11D6210A128A118316031308
:100D58005B08840083175C1C83130130F5005D0C6D
:100D6800F600F60C760C0739013EBC2E0310F50D83
:100D7800FF3E031DBA2E750880040630F600303099
:100D8800F500F50BC52EF60BC52E000083160313D0
:100D98005B08840083175C1C83130130F5005D0C2D
:100DA800F600F60C760C0739013EDC2E0310F50D23
:100DB800FF3E031DDA2E7508FF3A800508008312EE
:100DC8000313681CE82EE92EF42E3008F6002E08CE
:100DD800F7002F08F8000A128A11D1270A128A117F
:100DE80083120313B21FF92EFA2EFC2EB101B201A1
:100DF800B301B401162F2030F2000030F300831243
:100E080003132E08F4002F08F5000A128A11EE23A6
:100E18000A128A11013083120313B3070318B40AA4
:100E28000030B4073408803AF9003208803A790271
:100E3800031D202F31083302031C232F242FFF2EDC
:100E4800831203136818292F2A2F352F3008F6002C
:100E58002E08F7002F08F8000A128A11D1270A1263
:100E68008A1108000B1D392F3A2F5A2F013083128F
:100E78000313E6070318E70A0030E70700306702A4
:100E8800643003196602031C4A2F4B2F572F013079
:100E980083160313A0070318A10A0030A1078312C1
:100EA8000313E601E701D93081000B118312031304
:100EB8000C1C5F2F602F822F0130FA070318FB0AE2
:100EC8000030FB0700307B02333003197A02031C21
:100ED8006E2F6F2F712FFA01FB01FB308F001D3031
:100EE8008E0083160313220803197B2F7D2F0130F0
:100EF8007E2F0030A200831203130C1071088A00A1
:100F0800700E8300FE0E7E0E09000030831203135C
:100F1800A4000030A3000030A2000030A100721C21
:100F2800962F972FAE2F7608A1077708031103187D
:100F3800013E0319A02FA207780803110318013EE8
:100F48000319A72FA307790803110318013E0319F2
:100F5800AE2FA4070130A0000310F60DF70DF80D11
:100F6800F90DA00BB02F01300310F50CF40CF30CA5
:100F7800F20CFF3E031DB82F750874047304720445
:100F8800031DC72FC82F932F2408F5002308F4004A
:100F98002208F3002108F200080083120313AC01B1
:100FA800AD01EE2F2B08A900AA012908F2002A0892
:100FB800F3007708F4007808F5000A128A11EE2386
:100FC8000A128A11013083120313AC070318AD0A01
:100FD8000030AD072C087607A90029088400831380
:100FE8000008AB002B08031DFA2FFB2FD62F080093
:020FF8000800EF
:10100000FF1B0A2883137F1883170008840A03191B
:10101000FF0A080008308A000408840A82070034A6
:1010200056346F346C34743461346A3465343A3411
:101030002034003420345434693465346D347034D1
:101040006F343A342034003425343034323475343B
:101050003A34253430343234753400342534753420
:101060002E34253430343334753400343034303455
:081070003A343034303400340E
:101CDA00073400341A342C343E3464008001840AF8
:101CEA000406031900340406732E073083160313FF
:101CFA008100D9308312031381008B168B170800D9
:101D0A0001308316031788008130831203139F0062
:101D1A008030831603139F000800313083120313A7
:101D2A009000FB308F001D308E00831603130C14B5
:101D3A000B178B170800A12EA22E00008312031383
:101D4A009F149F18A92EAA2EA62E1E08F3008316EA
:101D5A0003131E08F2000800831203134C08CE0076
:101D6A00C32E4A08BE004B08BF004E30C0004D08C3
:101D7A00C1000A128A1190220A128A1583120313C9
:101D8A004E0884000A128A150A200A128A15003A95
:101D9A00031DD02ED12EB62ECA01CB010800513018
:101DAA0083120313D6004F08D7000030D800D90198
:101DBA00DA01E001E1015730CA000030CB005008D7
:101DCA00CC005630CD000A128A15B1260A128A159D
:101DDA008312031359084F07D5005508840083134B
:101DEA008001080083120313A001A1010F2F20080C
:101DFA007807F9007908840000080A128A11272551
:101E0A000A128A15013083120313A0070318A10AC4
:101E1A000030A10720087807F900790884008313A5
:101E2A000008031D192F1A2FFC2E0800F601F701CE
:101E3A00721C202F212F272F7408F6070318F70A80
:101E4A007508F70701300310F40DF50DFF3E031D69
:101E5A00282F01300310F30CF20CFF3E031D2F2F25
:101E6A0072087304031D3A2F3B2F1D2F7708F300C6
:101E7A007608F2000800720873040319452F462FEA
:101E8A00732F0130F600522F01300310F20DF30DBB
:101E9A00FF3E031D4A2F0130F607F31F552F562F19
:101EAA00492F73087502031D5C2F72087402031C04
:101EBA005F2F602F662F7208F4027308031CF50364
:101ECA00F50201300310F30CF20CFF3E031D672FDD
:101EDA000130F602031D722F732F562F7508F30077
:101EEA007408F2000800F601F70172087304031976
:101EFA007F2F802FB52F0130F8008C2F013003106F
:101F0A00F20DF30DFF3E031D842F0130F807F31F76
:101F1A008F2F902F832F01300310F60DF70DFF3E00
:101F2A00031D912F73087502031D9D2F72087402F9
:101F3A00031CA02FA12FA82F7208F4027308031CF8
:101F4A00F503F502761401300310F30CF20CFF3E90
:101F5A00031DA92F0130F802031DB42FB52F902FAE
:101F6A007708F3007608F200080083120313A3012E
:101F7A00A401E32F23087807A1007908A000031819
:101F8A00A00AA31FC92FA003831203132008A200CB
:101F9A002208FF00210884000A128A1500200A126A
:101FAA008A150A128A1127250A128A150130831204
:101FBA000313A3070318A40A0030A4072308780709
:101FCA00A1007908A0000318A00AA31FED2FA003FF
:101FDA00831203132008A2002208FF0021088400AC
:101FEA000A128A1500200A128A15003A031DFE2FCA
:061FFA00FF2FBF2F0800BD
:04400E00F12FFF3F50
:00000001FF
