:060000000A128A11FC2F18
:100EEA00F000700883120313950008008316031399
:100EFA000F140F088F3930388F0083120313170825
:100F0A00F0390C3897003F309705033092041215D8
:100F1A009B308316031392000800831603130711EC
:100F2A000A128A117B270A128A110530F40000304E
:100F3A00F50074080A128A1175270A128A110430F8
:100F4A00F2003D30F100F10BA82FF20BA82FAD2FC4
:100F5A000130F4070318F50A0030F507003075026E
:100F6A00153003197402031CBB2FBC2F9E2F0230AD
:100F7A00F3004530F200A930F100F10BC22FF20B59
:100F8A00C22FF30BC22FC92F1430F6000030F7001E
:100F9A0076080A128A1175270A128A110430F20099
:100FAA003D30F100F10BD72FF20BD72FDC2F013098
:100FBA00F6020030031CF703F7020030770205300F
:100FCA00031976020318EA2FEB2FCD2F0230F30014
:100FDA004530F200A930F100F10BF12FF20BF12F9D
:100FEA00F30BF12FF82F9A2F0A128A110028830186
:060FFA000A128A11922F79
:04400E00F12FFF3F50
:00000001FF
