:100000000A128A11DD2F00308A000408840A820750
:1000100000342034203420345334543441345434A4
:10002000553453343A3420344F344E340034383459
:100030002D342D3420344C34453444342034313480
:10004000003438342D342D3420344C344534443489
:100050002034323400344C34453444342034313488
:100060003A3420344F344E3400344C344534443424
:10007000203432343A3420344F344E340034203477
:0600800000343E340034A0
:1007E000073400341A342C343E34F701F8010B2C52
:1007F0007708760784000A128A1103200A128A11E8
:100800000A128A11D6240A128A110130F707031836
:10081000F80A0030F8077708760784000A128A1170
:1008200003200A128A11003A031D172C182CF82BEA
:10083000080008300A128A1181240A128A11003035
:100840000A128A1181240A128A110F30F6000A1244
:100850008A11F5230A128A110C300A128A11812496
:100860000A128A1100300A128A1181240A128A118E
:100870000130F6000A128A11F5230A128A1110308B
:10088000FB003930FA000D30F900F90B452CFA0B5A
:10089000452CFB0B452C4C2C080008300A128A1101
:1008A00081240A128A1100300A128A1181240A1244
:1008B0008A111930F6000A128A11F5230A128A11D8
:1008C0000C300A128A1181240A128A1100300A128D
:1008D0008A1181240A128A110130F6000A128A1143
:1008E000F5230A128A111030FB003930FA000D305E
:1008F000F900F90B792CFA0B792CFB0B792C802C55
:100900000800F50083120313200884008317211CBC
:1009100083130130F30022080739013E912C0310A4
:10092000F30DFF3E031D8F2C7308FF3A80057508F9
:100930000A128A1114260A128A118312031320083C
:1009400084008317211C83130130F300220CF40070
:10095000F40C740C0739013EAF2C0310F30DFF3E6D
:10096000031DAD2C730880040630F4003030F30012
:10097000F30BB82CF40BB82C0000831203132008DF
:1009800084008317211C83130130F300220CF40030
:10099000F40C740C0739013ECF2C0310F30DFF3E0D
:1009A000031DCD2C7308FF3A80050800F500831263
:1009B0000313200884008317211C83130130F300E4
:1009C00022080739013EE62C0310F30DFF3E031DFC
:1009D000E42C730880047508F30004300310F30C52
:1009E000FF3E031DEE2C73080F390A128A111426DC
:1009F0000A128A1183120313200884008317211C12
:100A000083130130F300220CF400F40C740C07394A
:100A1000013E0C2D0310F30DFF3E031D0A2D73083C
:100A200080040D30F300F30B132D83120313200801
:100A300084008317211C83130130F300220CF4007F
:100A4000F40C740C0739013E272D0310F30DFF3E03
:100A5000031D252D7308FF3A800575080F390A120A
:100A60008A1114260A128A118312031320088400A3
:100A70008317211C83130130F300220CF400F40CC3
:100A8000740C0739013E462D0310F30DFF3E031D84
:100A9000442D730880040D30F300F30B4D2D8312A9
:100AA0000313200884008317211C83130130F300F3
:100AB000220CF400F40C740C0739013E612D031074
:100AC000F30DFF3E031D5F2D7308FF3A80050800FC
:100AD00020308400760883138000840A7708800021
:100AE000840A78088000840A79088000840A7A08D9
:100AF00080000030831203132106031D812D053071
:100B00002006031D842D852D892D83160313850151
:100B1000A42D00302106031D8F2D06302006031D55
:100B2000922D932D972D831603138601A42D00304B
:100B30002106031D9D2D07302006031DA02DA12D8C
:100B4000132E8316031387011A30FC00F830FB00C4
:100B5000FB0BA82DFC0BA82D000003300A128A11F4
:100B600081240A128A110730FC007D30FB00FB0B48
:100B7000B72DFC0BB72D03300A128A1181240A12FB
:100B80008A111530FC00C630FB00FB0BC52DFC0B99
:100B9000C52D000003300A128A1181240A128A111D
:100BA00002300A128A1181240A128A1102300A12B2
:100BB0008A1181240A128A1108300A128A118124AA
:100BC0000A128A1100300A128A1181240A128A112B
:100BD00006300A128A1181240A128A110830FD0097
:100BE0007D157D08FB0004300310FB0CFF3E031D48
:100BF000F42D7B080F390A128A1181240A128A11F6
:100C00007D080F390A128A1181240A128A110030D4
:100C10000A128A1181240A128A1101300A128A11D9
:100C200081240A128A110800F200721C182E192E53
:100C30002E2E83120313200884008317211C831394
:100C40000130F00023080739013E282E0310F00D73
:100C5000FF3E031D262E70088004432E83120313CB
:100C6000200884008317211C83130130F00023081F
:100C70000739013E3D2E0310F00DFF3E031D3B2EB4
:100C80007008FF3A8005F21C462E472E5D2E200884
:100C900084008317211C83130130F000230CF10022
:100CA000F10C710C0739013E572E0310F00DFF3E79
:100CB000031D552E70088004732E200884008317AE
:100CC000211C83130130F000230CF100F10C710C96
:100CD0000739013E6D2E0310F00DFF3E031D6B2EF4
:100CE0007008FF3A8005721D762E772E8A2E200816
:100CF00084008317211C83130130F0002408073976
:100D0000013E842E0310F00DFF3E031D822E70085D
:100D100080049D2E200884008317211C831301303A
:100D2000F00024080739013E972E0310F00DFF3E16
:100D3000031D952E7008FF3A8005F21DA02EA12EEE
:100D4000B72E200884008317211C83130130F00084
:100D5000240CF100F10C710C0739013EB12E031087
:100D6000F00DFF3E031DAF2E70088004CD2E20082D
:100D700084008317211C83130130F000240CF10040
:100D8000F10C710C0739013EC72E0310F00DFF3E28
:100D9000031DC52E7008FF3A80050800831603174F
:100DA000880189017F308316031381050330860093
:100DB0008312031386017630840020088000840AA1
:100DC00021088000840A22088000840A2308800009
:100DD000840A240880000A128A1168250A128A11DE
:100DE000831203138618F52EF62E792F2708031980
:100DF000FA2EFC2E0130FD2E0030A7002708031D1F
:100E0000022F032F102F08300A128A1181240A1290
:100E10008A1100300A128A1181240A128A11452F80
:100E20002703031D142F152F222F0C300A128A11AD
:100E300081240A128A1100300A128A1181240A12AE
:100E40008A11452F2708031D262F272F342F0930FD
:100E50000A128A1181240A128A1104300A128A1194
:100E600081240A128A11452F2703031D382F392F99
:100E7000452F0D300A128A1181240A128A1104307A
:100E80000A128A1181240A128A113930F6000A12D4
:100E90008A11F5230A128A118312031327080319F2
:100EA000522F532F602F08300A128A1181240A1200
:100EB0008A1100300A128A1181240A128A11722FB3
:100EC0002708031D642F652F722F0C300A128A1118
:100ED00081240A128A1100300A128A1181240A120E
:100EE0008A11722F3730F6000A128A11F5230A127E
:100EF0008A1108300A128A1181240A128A110330D9
:100F00000A128A1181240A128A112330F6000A1269
:100F10008A11F5230A128A110C300A128A118124CF
:100F20000A128A1103300A128A1181240A128A11C4
:100F30002D30F6000A128A11F5230A128A110D309B
:100F400083120313A600FB30A500A50BA52FA60B4B
:100F5000A52F831203130618AE2FAF2FF02E0030EB
:100F60000A128A1181240A128A1101300A128A1186
:100F700081240A128A11831203132708031DC12F2B
:100F8000C22FC82F0A128A1119240A128A11CD2FD2
:100F90000A128A114D240A128A1100300A128A118B
:100FA00081240A128A1101300A128A1181240A123C
:100FB0008A11F02E0A128A1100280A128A11F023CF
:100FC0000A128A11A0000A128A11F1230A128A1148
:100FD000A1000A128A11F2230A128A11A2000A122F
:100FE0008A11F3230A128A11A3000A128A11F42328
:100FF0000A128A11A400A70183010A128A11CE2EB7
:04400E00F12FFF3F50
:00000001FF
