:100000000A128A11DE2FFF1B0D2883137F18831716
:100010000008840A0319FF0A080000308A00040857
:10002000840A8207003450346F3472346334653488
:100030006E34743461346A3465343A3420340034B4
:1000400056346F346C34743461346A3465343A3401
:10005000203400344D3469346C343A342034003464
:10006000253475342E3425347534003431342E342F
:10007000003432342E34003433342E34003407301C
:100080008316031788000130831203139F0080300A
:10009000831603139F0008007E088A007F088200F1
:1000A0000A128A114C200A128A118000840A04085C
:1000B0007D0603190034FF0A0319FE0A5028FB01CC
:1000C000FC0184287B087607F9007708F8000318FC
:1000D000F80AFB1F6C28F8037808FA007A088312E4
:1000E0000313FF00790884000A128A1103200A1200
:1000F0008A110A128A11C9210A128A110130FB07DA
:100100000318FC0A0030FC077B087607F900770823
:10011000F8000318F80AFB1F8E28F8037808FA0085
:100120007A0883120313FF00790884000A128A11E7
:1001300003200A128A11003A031D9F28A028622872
:100140000800F401F501700871040319A828A92812
:10015000DE280130F600B52801300310F00DF10D56
:10016000FF3E031DAD280130F607F11FB828B9285E
:10017000AC2801300310F40DF50DFF3E031DBA2825
:1001800071087302031DC62870087202031CC92877
:10019000CA28D1287008F2027108031CF303F30285
:1001A000741401300310F10CF00CFF3E031DD22833
:1001B0000130F602031DDD28DE28B9287508F1009C
:1001C0007408F00008000030FC000030FB00003034
:1001D000FA000030F900701CEE28EF280629740898
:1001E000F907750803110318013E0319F828FA07E7
:1001F000760803110318013E0319FF28FB0777084F
:1002000003110318013E03190629FC070130F80009
:100210000310F40DF50DF60DF70DF80B082901305C
:100220000310F30CF20CF10CF00CFF3E031D10292F
:100230007308720471047004031D1F292029EB2820
:100240007C08F3007B08F2007A08F1007908F000DE
:10025000080008300A128A1174210A128A11033028
:100260000A128A1174210A128A111830F60080309D
:10027000F7000A128A115F200A128A1183120313EF
:100280004308B0002130B1005608B3005508B20051
:100290000A128A152B270A128A110C300A128A11A7
:1002A00074210A128A1100300A128A1174210A126A
:1002B0008A11831203134308F6000030F7000A1274
:1002C0008A115F200A128A11023083120313C600BA
:1002D0000430C500B930C400C40B6C29C50B6C29AF
:1002E000C60B6C2973290800F500831203136208FA
:1002F00084008317631C83130130F30064080739FB
:10030000013E84290310F30DFF3E031D822973086B
:10031000FF3A800575080A128A1184250A128A118B
:1003200083120313620884008317631C8313013054
:10033000F300640CF400F40C740C0739013EA2299C
:100340000310F30DFF3E031DA0297308800406303F
:10035000F4003030F300F30BAB29F40BAB290000B1
:1003600083120313620884008317631C8313013014
:10037000F300640CF400F40C740C0739013EC2293C
:100380000310F30DFF3E031DC0297308FF3A8005DB
:100390000800F50083120313620884008317631CAE
:1003A00083130130F30064080739013ED929031093
:1003B000F30DFF3E031DD729730880047508F30071
:1003C00004300310F30CFF3E031DE12973080F39BD
:1003D0000A128A1184250A128A11831203136208F1
:1003E00084008317631C83130130F300640CF40052
:1003F000F40C740C0739013EFF290310F30DFF3E86
:10040000031DFD29730880040D30F300F30B062A49
:1004100083120313620884008317631C8313013063
:10042000F300640CF400F40C740C0739013E1A2A32
:100430000310F30DFF3E031D182A7308FF3A8005D1
:1004400075080F390A128A1184250A128A1183123B
:100450000313620884008317631C83130130F300C5
:10046000640CF400F40C740C0739013E392A0310B3
:10047000F30DFF3E031D372A730880040D30F3008F
:10048000F30B402A83120313620884008317631C52
:1004900083130130F300640CF400F40C740C07397E
:1004A000013E542A0310F30DFF3E031D522A730828
:1004B000FF3A8005080083120313A901A31F612AD4
:1004C000622A6F2AA009A109A209A309A00A031997
:1004D000A10A0319A20A0319A30A0130A900A71F40
:1004E000722A732A802AA409A509A609A709A40AC1
:1004F0000319A50A0319A60A0319A70A0130A906B8
:100500000030AD000030AC000030AB000030AA007D
:10051000230822042104200403198F2A902ADB2AAD
:100520000130A8009E2A0130FD000310A00DA10D8E
:10053000A20DA30DFD0B952A0130A807A31FA12A28
:10054000A22A932A0130FD000310AA0DAB0DAC0DB9
:10055000AD0DFD0BA42A23082702031DB92A22088A
:100560002602031DB92A21082502031DB92A2008E5
:100570002402031CBC2ABD2ACC2A2008A40221087C
:10058000031C210FA5022208031C220FA602230828
:10059000031C230FA7022A1401300310A30CA20C82
:1005A000A10CA00CFF3E031DCD2A0130A802031DA3
:1005B000DA2ADB2AA22A29080319DF2AE02AEB2AF1
:1005C000AA09AB09AC09AD09AA0A0319AB0A0319B8
:1005D000AC0A0319AD0A2D08A3002C08A2002B08B1
:1005E000A1002A08A0000800720873040319F92A60
:1005F000FA2A002B72087304031DFF2A002B072B15
:1006000070080A128A1517270A128A118D2B720890
:10061000093EF40073080318013E003EF50074081B
:1006200084008317751C83130008F600840A0008F1
:10063000F7007608770403191E2B1F2B512B720825
:10064000093EF40073080318013E003EF5007408EB
:1006500084008317751C83130008F600840A0008C1
:10066000F7007208023EF80073080318013E003ECE
:10067000F900780884008317791C83130008FA00B6
:10068000840A0008FB007B08803AFC007708803A67
:100690007C02031D4D2B76087A020318502B512B38
:1006A0008D2B720884008317731C83130008F400D9
:1006B000840A0008F5007208023EF6007308031869
:1006C000013E003EF700760884008317771C8313F1
:1006D00000087407F9007508F8000318F80A801F6D
:1006E000722BF8037808FA007908840083177A1CC3
:1006F0008313700880007208023EF4007308031828
:10070000013E003EF500740884008317751C8313B6
:1007100001308007840A0318800A080008300A1292
:100720008A1174210A128A1103300A128A11742163
:100730000A128A110130F6008030F7000A128A117D
:100740005F200A128A11003083120313A3000130C4
:10075000A2008F30A1009C30A0005508F000560880
:10076000F100F201F3010030F7000F30F6004230E3
:10077000F5004030F4000A128A11E3200A128A11AF
:10078000730883120313A7007208A6007108A5005E
:100790007008A4000A128A115B220A128A118312BD
:1007A00003132108D4002008D3006430F000003087
:1007B000F1005408F3005308F2000A128A11A12034
:1007C0000A128A11710883120313D2007008D10033
:1007D0006430F0000030F1005408F3005308F200D8
:1007E0000A128A15C8270A128A1171088312031384
:1007F000D0007008CF004308B0001E30B10052088E
:10080000B3005108B2005008B5004F08B4000A12F6
:100810008A152B270A128A110C300A128A117421A8
:100820000A128A1100300A128A1174210A128A11DE
:10083000831203134308F6000030F7000A128A11EE
:100840005F200A128A11023083120313C60004309B
:10085000C500B930C400C40B2B2CC50B2B2CC60B08
:100860002B2C322C080008300A128A1174210A122B
:100870008A1103300A128A1174210A128A110E3069
:10088000F6008030F7000A128A115F200A128A11DE
:10089000003083120313A3000030A2002730A10010
:1008A000F630A0005508F0005608F100F201F301FF
:1008B0000030F7000030F600C330F5005030F4008F
:1008C0000A128A11E3200A128A1173088312031391
:1008D000A7007208A6007108A5007008A4000A12FB
:1008E0008A115B220A128A11831203132108D40091
:1008F0002008D300E830F0000330F1005408F30082
:100900005308F2000A128A11A1200A128A117108F2
:1009100083120313D2007008D100E830F0000330D6
:10092000F1005408F3005308F2000A128A15C82790
:100930000A128A11710883120313D0007008CF00C5
:100940004308B0001E30B1005208B3005108B20095
:100950005008B5004F08B4000A128A152B270A1256
:100960008A110C300A128A1174210A128A1100307D
:100970000A128A1174210A128A118312031343087E
:10098000F6000030F7000A128A115F200A128A115D
:10099000023083120313C6000430C500B930C4000E
:1009A000C40BD02CC50BD02CC60BD02CD72C0800D8
:1009B00062308400760883138000840A7708800000
:1009C000840A78088000840A79088000840A7A08FA
:1009D00080000030831203136306031DF12C0530E1
:1009E0006206031DF42CF52CF92C831603138501E4
:1009F000142D00306306031DFF2C06306206031D14
:100A0000022D032D072D831603138601142D0030AC
:100A10006306031D0D2D07306206031D102D112DD9
:100A2000832D8316031387011A30FC00F830FB0076
:100A3000FB0B182DFC0B182D000003300A128A1135
:100A400074210A128A110730FC007D30FB00FB0B79
:100A5000272DFC0B272D03300A128A1174210A124C
:100A60008A111530FC00C630FB00FB0B352DFC0B4A
:100A7000352D000003300A128A1174210A128A11DE
:100A800002300A128A1174210A128A1102300A12E3
:100A90008A1174210A128A1108300A128A117421EB
:100AA0000A128A1100300A128A1174210A128A115C
:100AB00006300A128A1174210A128A110830FD00C8
:100AC0007D157D08FB0004300310FB0CFF3E031D69
:100AD000642D7B080F390A128A1174210A128A11B7
:100AE0007D080F390A128A1174210A128A11003006
:100AF0000A128A1174210A128A1101300A128A110B
:100B000074210A128A110800F200721C882D892DA6
:100B10009E2D83120313620884008317631C8313C2
:100B20000130F00065080739013E982D0310F00DE3
:100B3000FF3E031D962D70088004B32D831203130E
:100B4000620884008317631C83130130F00065087A
:100B50000739013EAD2D0310F00DFF3E031DAB2DF7
:100B60007008FF3A8005F21CB62DB72DCD2D620816
:100B700084008317631C83130130F000650CF100BF
:100B8000F10C710C0739013EC72D0310F00DFF3E2B
:100B9000031DC52D70088004E32D620884008317AF
:100BA000631C83130130F000650CF100F10C710C33
:100BB0000739013EDD2D0310F00DFF3E031DDB2D37
:100BC0007008FF3A8005721DE62DE72DFA2D6208A8
:100BD00084008317631C83130130F0006608073913
:100BE000013EF42D0310F00DFF3E031DF22D7008A1
:100BF00080040D2E620884008317631C8313013068
:100C0000F00066080739013E072E0310F00DFF3E85
:100C1000031D052E7008FF3A8005F21D102E112EBF
:100C2000272E620884008317631C83130130F000B1
:100C3000660CF100F10C710C0739013E212E0310F6
:100C4000F00DFF3E031D1F2E700880043D2E62082C
:100C500084008317631C83130130F000660CF100DD
:100C6000F10C710C0739013E372E0310F00DFF3ED9
:100C7000031D352E7008FF3A800508008312031308
:100C800022088400000884000A128A110D200A122A
:100C90008A11253A031D4D2E4E2EE82E220884007F
:100CA00001308007CB01CC010030D700FF30CD00F0
:100CB000FF30CE00220884000008AA002A08840021
:100CC0000A128A110D200A128A11753A031D692E23
:100CD0006A2EE12E2308840083130008FF000230EF
:100CE00080077F0884000008A600840A0008A70087
:100CF000220884002A08013E8000D62E2030AB0056
:100D00000130AB022B08A03E84000A30F000003016
:100D1000F1002708F3002608F2000A128A15C827F6
:100D20000A128A117008303E831380000A30F000E6
:100D30000030F100831203132708F3002608F200A5
:100D40000A128A11A1200A128A1171088312031350
:100D5000A7007008A600260827040319B02EB12E9C
:100D6000CF2E2B08031DB52EB62E802ECF2E2B088E
:100D7000A03E840083130008A400A5012408F0000D
:100D80002508F1002008F2002108F3000A128A1158
:100D9000F4220A128A11013083120313AB072030A8
:100DA0002B06031DD42ED52EB72E012F2A08840022
:100DB0000A128A110D200A128A11753A03197E2E21
:100DC000E12E831203132208840001308007012FD3
:100DD00022088400000884000A128A110D200A12D9
:100DE0008A11A400A5012408F0002508F1002008BC
:100DF000F2002108F3000A128A11F4220A128A1161
:100E0000E12E08008316031789017F308316031330
:100E10008105033086008312031386010A128A11AA
:100E20003F200A128A11763084008312031362086D
:100E30008000840A63088000840A64088000840AB1
:100E400065088000840A660880000A128A11D82486
:100E50000A128A1100300A128A1174210A128A11A8
:100E600001300A128A1174210A128A1108300A12FA
:100E70008A1174210A128A1100300A128A1174210F
:100E80000A128A11612F2430F6008030F7000A120E
:100E90008A115F200A128A11732F2730F6008030E2
:100EA000F7000A128A115F200A128A11732F2A3062
:100EB000F6008030F7000A128A115F200A128A11A8
:100EC000732F831203136A08003A0319682F732FD4
:100ED0006908013A0319432F033A03194D2F013AC8
:100EE0000319572F732F831203130618782F792FA6
:100EF000912F6C0803197D2F7E2F912F0130E90768
:100F00000318EA0A0030EA0700306A0204300319C5
:100F10006902031C8C2F8D2F912F0130E9000030C6
:100F2000EA0006080139EC008618972F982FB02F99
:100F30006B0803199C2F9D2FB02F0130E707031872
:100F4000E80A0030E807003068020430031967023D
:100F5000031CAB2FAC2FB02F0130E7000030E800AE
:100F6000060C0139EB006908FF3EF0006A0803181F
:100F7000013EFF3EF1000A128A1573270A128A11F8
:100F8000710883120313D6007008D5006808C800E2
:100F90006708C7000A128A159C270A128A111A309C
:100FA00083120313CA00F730C900C90BD52FCA0B2F
:100FB000D52FDA2F2A2F0A128A11002883136D30B9
:100FC000FD000F30FE002030FF00623084000A1266
:100FD0008A1150200A128A11A0308400D4300A12DB
:100FE0008A1518270A128A114B30840062300A12BF
:100FF0008A1518270A128A1183010A128A11022FF0
:101E2E00080064008001840A0406031900340406C5
:101E3E00192F073400341A342C343E340134003454
:101E4E000134003401340134323083120313B700ED
:101E5E003008B8000030B900BA01BB01C101C2019F
:101E6E003830AC000030AD003108AE003730AF0076
:101E7E000A128A154E270A128A15831203133A087C
:101E8E003007B600360884008313800108008312E1
:101E9E0003132E08FD00622F831203132C08A000DB
:101EAE002D08A1007D30A2002F08A3000A128A116E
:101EBE003E260A128A157D0884000A128A110D2008
:101ECE000A128A15003A031D6D2F6E2F532F83129F
:101EDE000313AC01AD010800742F752F0000833081
:101EEE00831203139F057008F20001300310F20DE8
:101EFE00FF3E031D7D2F0310720D9F040330F30070
:101F0E009730F200F20B892FF30B892F8E2F83124D
:101F1E0003139F149F18942F952F912F1E08F100D5
:101F2E00831603131E08F0000800B52F5830C300A7
:101F3E000A128A1133240A128A15C72FCA30C30017
:101F4E000A128A118E230A128A15C72FC030C300B7
:101F5E000A128A1129210A128A15C72F8312031316
:101F6E004808003A0319BC2FC72F4708013A031936
:101F7E009D2F033A0319A52F013A0319AD2FC72F31
:101F8E000800700871040319CD2FCE2FFB2F0130DE
:101F9E00F400DA2F01300310F00DF10DFF3E031D9A
:101FAE00D22F0130F407F11FDD2FDE2FD12F710854
:101FBE007302031DE42F70087202031CE72FE82F33
:101FCE00EE2F7008F2027108031CF303F3020130C6
:101FDE000310F10CF00CFF3E031DEF2F0130F40245
:101FEE00031DFA2FFB2FDE2F7308F1007208F0008D
:021FFE000800D9
:04400E00F12FFF3F50
:00000001FF
