:060000000A128A110E280D
:10000800FE00030EF8000A08F9007F08FA000A1239
:100018008A1164290A128A11112883132A30FD00D3
:100028000130FE008C30FF00203084000A128A1153
:100038007D210A128A11AA01AB01AC01AD01FB01B5
:10004800FC0183010A128A112729F501F11F2D28C5
:100058002E283528F009F109F00A0319F10A0130B0
:10006800F500F31F382839284028F209F309F20A65
:100078000319F30A0130F506F601F7017008710457
:100088000319472848287D280130F40054280130F6
:100098000310F00DF10DFF3E031D4C280130F4074D
:1000A800F11F572858284B2801300310F60DF70D7B
:1000B800FF3E031D592871087302031D6528700847
:1000C8007202031C6828692870287008F2027108F7
:1000D800031CF303F302761401300310F10CF00C47
:1000E800FF3E031D71280130F402031D7C287D2882
:1000F800582875080319812882288728F609F709DE
:10010800F60A0319F70A7708F1007608F0000800E4
:10011800F501F31F902891289828F209F309F20AAB
:100128000319F30A0130F500F11F9B289C28A12828
:10013800F009F109F00A0319F10A700871040319AA
:10014800A628A728D4280130F400B32801300310CA
:10015800F00DF10DFF3E031DAB280130F407F11F30
:10016800B628B728AA2871087302031DBD2870088D
:100178007202031CC028C128C7287008F20271083F
:10018800031CF303F30201300310F10CF00CFF3EE3
:10019800031DC8280130F402031DD328D428B7282A
:1001A80075080319D828D928DE28F209F309F20AB4
:1001B8000319F30A7308F1007208F00008000A3006
:1001C800F0000030F1007B08013EF2007C080318C3
:1001D800013E003EF3000A128A118C200A128A118D
:1001E8007108FC007008FB00013083120313AA0792
:1001F8000318AB0A0030AB070A30F0000030F100FA
:100208002B08F3002A08F2000A128A1129200A1280
:100218008A11710883120313AD007008AC002D0811
:10022800803AFF0080307F02031D1C290A302C020F
:10023800031C1F292029262983120313AA01AB01B5
:10024800AC01AD01080083160317890188017F30CE
:1002580083160313810587018801FF308600831206
:100268000313880187018B170B16831603130113D9
:10027800F7308312031387002C08203E8400831371
:1002880000088800C73083120313AE004B29AE0B59
:100298004A294E29FB308312031387007B08203E2E
:1002A8008400831300088800C73083120313AE004C
:1002B8005D29AE0B5C2960293C290A128A110E2897
:1002C8008B1C6729682970298B130A128A11E3206D
:1002D8000A128A118B178B107A08FF0079088A0096
:1002E800780E8300FE0E7E0E09007E088A007F08C5
:1002F80082000A128A1179210A128A118000840A5E
:1003080004087D0603190034FF0A0319FE0A7D2933
:100318003F3406345B344F3466346D347D340734EF
:040328007F346F347B
:04400E00F12FFF3F50
:00000001FF
